:020000040000FA
:04000000E2EF3EF0FD
:107DAB00010F0EC16E9282E70E936E81968198221F
:107DBB00EC3FF063EC3FF0FBD7AB0EF66E7D0EF7AE
:107DCB006E000EF86E0900F5CF12F000EE01F00E0A
:107DDB000EEE6AE806FDE10001D6EF3EF0818681EA
:107DEB00AE02D0010E01D0000E0C6E010E05260066
:107DFB000E062207220822500E051811E1F80E0676
:107E0B00180EE10C0E07180810D8A409D0000E05A7
:107E1B006E000E066E000E076E000E086E03D00C81
:107E2B0004D8B4DCD78196000E056E000E066E00EA
:107E3B000E076E000E086E120080A202D0010E011A
:107E4B00D0000E116E020E106E450E0F6EAA0EE8CC
:107E5B002EFED70F2EFCD7102EFAD71104D8A42A3A
:107E6B00D00E50D8A427D0020E106E450E0F6EAA5E
:107E7B000EE82EFED70F2EFCD7102EFAD781AC02B0
:107E8B00D0010E01D0000E0B6E1104D8A413D00E2E
:107E9B0050D8A410D00B50D8A40DD0094A0A2A02EE
:107EAB000E09180A10D8A406D0F4EC3EF0000E0A06
:107EBB006E000E096E11C00EF0120081A402D001EB
:107ECB000E01D0000E0D6E020E106E450E0F6EAA37
:107EDB000EE82EFED70F2EFCD7102EFAD70D50D84A
:107EEB00A486D01204D8A483D0020E106E450E0FB8
:107EFB006EAA0EE82EFED70F2EFCD7102EFAD781C6
:107F0B00AC02D0010E01D0000E0B6E0D50D8A46F39
:107F1B00D01204D8A46CD00B04D8A469D08188816A
:107F2B00AC02D0010E01D0000E0B6E010E05260027
:107F3B000E062207220822500E051811E1F80E0634
:107F4B00180EE10C0E07180810D8A409D0000E0566
:107F5B006E000E066E000E076E000E086E03D00B41
:107F6B0004D8B4DCD78198000E056E000E066E00A7
:107F7B000E076E000E086E80A202D0010E01D0001B
:107F8B000E116E010E0126000E0222032204228026
:107F9B00A202D0010E01D0000E116E400E01181C72
:107FAB00E1420E021819E10F0E03180410D8A414A5
:107FBB00D081AC02D0010E01D0000E0B6E0B50D84D
:107FCB00A40ED0F4EC3EF0000E016E000E026E001B
:107FDB000E036E000E046E03D01104D8B4D2D7007A
:107FEB000E016E000E026E000E036E000E046E0D7F
:057FFB00C012F01200AD
:020000040020DA
:08000000FFFFFFFFFFFFFFFF00
:020000040030CA
:0E000000000C191EFF8381FF0FC00FE00F40A0
:00000001FF
