:020000040000FA
:04000000FFEF38F0E6
:106CCF00010101829E829C110E816E120036C0A9B5
:106CDF00FFA69EA69CA680A85012008D0E816E82E4
:106CEF008E080EE82EFED700F0829E8F0E816E82E8
:106CFF008C080EE82EFED700F0829C120036C0A939
:106D0F00FF38C0A8FFA69EA69CA684F29E550EA78C
:106D1F006EAA0EA76EA682F28EA6B2FED71200C280
:106D2F0082C2B2FED7C4CF23F0246A2350246E232D
:106D3F006AC3502324236E000E2420246E23C036F2
:106D4F00F024C037F0120097EC36F036C027F0373A
:106D5F00C028F028BE09D0210E275C020E2858D873
:106D6F00A003D075EC36F0120069EC36F012001962
:106D7F000E816E828E0B0E366E620EE82EFED736A9
:106D8F002EFCD700D0829EF30E816E828C0B0E36B6
:106D9F006E620EE82EFED7362EFCD700D0829C12E4
:106DAF0000190E816E828E0B0E366E620EE82EFE6D
:106DBF00D7362EFCD700D0829E490E816E828C0B67
:106DCF000E366E620EE82EFED7362EFCD700D0821E
:106DDF009C1200190E816E828E0B0E366E620EE8BB
:106DEF002EFED7362EFCD700D0829E610E816E828A
:106DFF008C0B0E366E620EE82EFED7362EFCD700A9
:106E0F00D0829C1200190E816E828E0B0E366E622E
:106E1F000EE82EFED7362EFCD700D0829E330E8181
:106E2F006E828C0B0E366E620EE82EFED7362EFC5F
:106E3F00D700D0829C1200110E816E829E0B0E36EF
:106E4F006E620EE82EFED7362EFCD700D0829E81C2
:106E5F000E816E828C0B0E366E620EE82EFED736CA
:106E6F002EFCD700D0829C1200110E816E829E0BD9
:106E7F000E366E620EE82EFED7362EFCD700D0826D
:106E8F009EF30E816E828C0B0E366E620EE82EFE16
:106E9F00D7362EFCD700D0829C1200FE0E816E8258
:106EAF008E0B0E366E620EE82EFED7362EFCD700F6
:106EBF00D0829E110E816E829C0B0E366E620EE892
:106ECF002EFED7362EFCD700D0829C1200FE0E81EC
:106EDF006E828E0B0E366E620EE82EFED7362EFCAD
:106EEF00D700D0829EFE0E816E828C0B0E366E62A4
:106EFF000EE82EFED7362EFCD700D0829C1200F360
:106F0F000E816E828E0B0E366E620EE82EFED73617
:106F1F002EFCD700D0829E810E816E828C0B0E3696
:106F2F006E620EE82EFED7362EFCD700D0829C1252
:106F3F0000F30E816E828E0B0E366E620EE82EFE01
:106F4F00D7362EFCD700D0829EF30E816E828C0B2B
:106F5F000E366E620EE82EFED7362EFCD700D0828C
:106F6F009C1200F30E816E828E0B0E366E620EE84F
:106F7F002EFED7362EFCD700D0829E490E816E8210
:106F8F008C0B0E366E620EE82EFED7362EFCD70017
:106F9F00D0829C1200F30E816E828E0B0E366E62C3
:106FAF000EE82EFED7362EFCD700D0829E610E81C2
:106FBF006E828C0B0E366E620EE82EFED7362EFCCE
:106FCF00D700D0829C1200F30E816E828E0B0E368C
:106FDF006E620EE82EFED7362EFCD700D0829E337F
:106FEF000E816E828C0B0E366E620EE82EFED73639
:106FFF002EFCD700D0829C1200F30E816E828E0B76
:10700F000E366E620EE82EFED7362EFCD700D082DB
:10701F009E250E816E828C0B0E366E620EE82EFE52
:10702F00D7362EFCD700D0829C1200110E816E82B3
:10703F009E0B0E366E620EE82EFED7362EFCD70054
:10704F00D0829E490E816E828C0B0E366E620EE8D8
:10705F002EFED7362EFCD700D0829C1200110E8147
:10706F006E829E0B0E366E620EE82EFED7362EFC0B
:10707F00D700D0829E610E816E828C0B0E366E62AF
:10708F000EE82EFED7362EFCD700D0829C120011B0
:10709F000E816E829E0B0E366E620EE82EFED73676
:1070AF002EFCD700D0829E330E816E828C0B0E3653
:1070BF006E620EE82EFED7362EFCD700D0829C12C1
:1070CF0000110E816E829E0B0E366E620EE82EFE42
:1070DF00D7362EFCD700D0829E250E816E828C0B68
:1070EF000E366E620EE82EFED7362EFCD700D082FB
:1070FF009C1200110E816E829E0B0E366E620EE890
:10710F002EFED7362EFCD700D0829E050E816E82C2
:10711F008C0B0E366E620EE82EFED7362EFCD70085
:10712F00D0829C1200110E816E829E0B0E366E6203
:10713F000EE82EFED7362EFCD700D0829EF10E81A0
:10714F006E828C0B0E366E620EE82EFED7362EFC3C
:10715F00D700D0829C1200110E816E829E0B0E36CC
:10716F006E620EE82EFED7362EFCD700D0829E011F
:10717F000E816E828C0B0E366E620EE82EFED736A7
:10718F002EFCD700D0829C1200110E816E829E0BB6
:10719F000E366E620EE82EFED7362EFCD700D0824A
:1071AF009E210E816E828C0B0E366E620EE82EFEC5
:1071BF00D7362EFCD700D0829C1200010E1126006C
:1071CF000E122213221422E80E111810E1030E12D0
:1071DF001813101410D8A41200000E2D6E000E11EB
:1071EF006E000E126E000E136E000E146E1200CF94
:1071FF000EF66E6C0EF76E000EF86E0900F5CF3FAF
:10720F00F00900F5CF40F00900F5CF41F000EE0195
:10721F00F0350EEE6AE806FDE1000EF86E0001197A
:10722F00EF39F00E0EC16E928092829288949294F2
:10723F0094949C949E92849286928A9480C30EC258
:10724F0016F80EC016C08EC280000E936E81688233
:10725F009E829C82928294000E376E010E366E6E65
:10726F00EC36F00009D8B402D0010E01D0000E4266
:10727F006E22EC3AF047EC39F03CEC3CF0F9D78059
:10728F00A202D0010E01D0000E346E020E396E45EF
:10729F000E386EAA0EE82EFED7382EFCD7392EFAEE
:1072AF00D73404D8A42AD03550D8A427D0020E3909
:1072BF006E450E386EAA0EE82EFED7382EFCD73943
:1072CF002EFAD780A402D0010E01D0000E316E34F9
:1072DF0004D8A413D03550D8A410D03150D8A40D51
:1072EF00D0030E396E8A0E386E560EE82EFED73842
:1072FF002EFCD7392EFAD7CDEC39F034C035F01239
:10730F000069EC36F00D0E386EAF0E376EB60EE824
:10731F002EFED7372EFCD7382EFAD700D055EC37A4
:10732F00F0010E1526000E16221722182218BEF68F
:10733F00D718501710161004E1FA0E155CD8A0EEEE
:10734F00D7000E156E000E166E000E176E000E187B
:10735F006E6EEC37F0010E1526000E16221722184E
:10736F002218BEF6D718501710161004E1FA0E1592
:10737F005CD8A0EED7000E156E000E166E000E171D
:10738F006E000E186E000E2D6E1200828280A60205
:10739F00D0010E01D0000E326E010E1D26000E1E02
:1073AF00221F22202297EC36F036C027F037C02854
:1073BF00F0ABEC36F0900E1D1811E1D00E1E180E2A
:1073CF00E1030E1F182010D8A409D0000E1D6E0067
:1073DF000E1E6E000E1F6E000E206E1AD028BE15E8
:1073EF00D0210E275C020E2858D8A00FD0294A2A88
:1073FF002A2ABE0BD0D10E295C070E2A58D8A00519
:10740F00D0000E2A6E000E296E03D03204D8B4BD00
:10741F00D78292000E1D6E000E1E6E000E1F6E00A4
:10742F000E206E000E2A6E000E296E000E2F6E00BB
:10743F000E2E6E120080AA02D0010E01D0000E4354
:10744F006E070E3D6E7D0EE82EFED73D2EFCD7004B
:10745F00F04350D8A422D04004D8A41FD0010E2F3F
:10746F006E2F04D8A41AD02E04D8A417D0010E2D35
:10747F006E000E2F6E000E2E6E000E266E000E2565
:10748F006E080E3E6E9D0E3D6E060EE82EFED73D2B
:10749F002EFCD73E2EFAD771EC3BF043C040F08262
:1074AF00A002D0010E01D0000E306E070E3D6E7D92
:1074BF000EE82EFED73D2EFCD700F03050D8A42278
:1074CF00D03F04D8A41FD0010E2E6E2E04D8A41ABC
:1074DF00D02F04D8A417D0010E2D6E000E2E6E00E3
:1074EF000E2F6E000E266E000E256E080E3E6E9D40
:1074FF000E3D6E060EE82EFED73D2EFCD73E2EFA21
:10750F00D771EC3BF030C03FF012000BD023EC37BB
:10751F00F018D03CEC37F015D0000E266E000E257B
:10752F006E10D025C039F026C03AF03A50000AD874
:10753F00A4F3D73950000AD8B4E9D7010AD8B4E96F
:10754F00D7EBD782A002D0010E01D0000E306E30E3
:10755F0050D8A40DD03F04D8A40AD0254A262A001B
:10756F000E116E000E126E000E136E000E146E30A2
:10757F00C03FF080AA02D0010E01D0000E436E432F
:10758F0050D8A42DD04004D8B41AD029D0000E372B
:10759F006E010E366E000E386E86EC36F088EC39C2
:1075AF00F01ED0000E376E010E366E010E386E864D
:1075BF00EC36F0F4D7000E266E000E256E10D02597
:1075CF00C039F026C03AF03A50000AD8A4F3D739A0
:1075DF0050000AD8B4DBD7010AD8B4E3D7EBD743AE
:1075EF00C040F0E5EC38F02D04D8A412009AD70B68
:1075FF00D023EC37F018D03CEC37F015D0000E2626
:10760F006E000E256E10D025C039F026C03AF03A24
:10761F0050000AD8A4F3D73950000AD8B4E9D701DB
:10762F000AD8B4E9D7EBD782A002D0010E01D0005F
:10763F000E306E3050D8A40DD03F04D8A40AD025F8
:10764F004A262A000E116E000E126E000E136E00E7
:10765F000E146E30C03FF080AA02D0010E01D00090
:10766F000E436E4350D8A42DD04004D8B41AD0295D
:10767F00D0000E376E030E366E000E386E86EC3667
:10768F00F088EC39F01ED0000E376E030E366E0107
:10769F000E386E86EC36F0F4D7000E266E000E25EF
:1076AF006E10D025C039F026C03AF03A50000AD8F3
:1076BF00A4F3D73950000AD8B4DBD7010AD8B4E302
:1076CF00D7EBD743C040F0E5EC38F02D04D8A41227
:1076DF00009AD711D0BFEC36F024D0D8EC36F02179
:1076EF00D0F1EC36F01ED00AEC37F01BD0000E268E
:1076FF006E000E256E16D025C03BF026C03CF03C28
:10770F0050000AD8A4F3D73B50000AD8B4E3D701EE
:10771F000AD8B4E3D7030AD8B4E3D7010AD8B4E33D
:10772F00D7E5D782A002D0010E01D0000E306E3007
:10773F0050D8A40DD03F04D8A40AD0254A262A0039
:10774F000E116E000E126E000E136E000E146E30C0
:10775F00C03FF080AA02D0010E01D0000E436E434D
:10776F0050D8A47AD04004D8A477D0000E116E0060
:10777F000E126E000E136E000E146E58D0000E26F1
:10778F006E000E256E080E3C6E9D0E3B6E060EE8CB
:10779F002EFED73B2EFCD73C2EFAD78DEC3AF05C61
:1077AF00D0000E266E000E256E080E3C6E9D0E3B11
:1077BF006E060EE82EFED73B2EFCD73C2EFAD724B2
:1077CF00EC3DF04AD0000E266E000E256E080E3CE2
:1077DF006E9D0E3B6E060EE82EFED73B2EFCD73C61
:1077EF002EFAD7FFEC3AF038D0000E266E000E2599
:1077FF006E080E3C6E9D0E3B6E060EE82EFED73BBE
:10780F002EFCD73C2EFAD792EC3EF026D0000E2657
:10781F006E000E256E080E3C6E9D0E3B6E060EE83A
:10782F002EFED73B2EFCD73C2EFAD716D025C03BC9
:10783F00F026C03CF03C50000AD8A4E8D73B5000DB
:10784F000AD8B49CD7010AD8B4ABD7030AD8B4BAB4
:10785F00D7010AD8B4C9D7DAD743C040F0E5EC381E
:10786F00F02D04D8A4120047D780A802D0010E0132
:10787F00D0000E336E020E396E450E386EAA0EE82A
:10788F002EFED7382EFCD7392EFAD73350D8A4D1A5
:10789F00D04104D8A4CED0020E396E450E386EAA50
:1078AF000EE82EFED7382EFCD7392EFAD780A40239
:1078BF00D0010E01D0000E316E3350D8A4BAD04192
:1078CF0004D8A4B7D03104D8A4B4D0010E2B6E8243
:1078DF008480A402D0010E01D0000E316E010E1D66
:1078EF0026000E1E221F222022ABEC36F03150D87C
:1078FF00A429D0000E2B6E000E376E010E366E6E61
:10790F00EC36F0386E38503A6E3B6A3A043B10D87A
:10791F00A419D0330E396EBB0E386EE00EE82EFE72
:10792F00D7382EFCD7392EFAD782948282030E399C
:10793F006E8A0E386E560EE82EFED7382EFCD739CB
:10794F002EFAD78292900E1D1811E1D00E1E180E2E
:10795F00E1030E1F182010D8A409D0000E1D6E00D1
:10796F000E1E6E000E1F6E000E206E1AD028BE1552
:10797F00D0210E275C020E2858D8A00FD0294A2AF2
:10798F002A2ABE0BD0D10E295C070E2A58D8A00583
:10799F00D0000E2A6E000E296E03D02B04D8B49798
:1079AF00D78294000E1D6E000E1E6E000E1F6E000D
:1079BF000E206E000E2A6E000E296E80A202D001DC
:1079CF000E01D0000E346E010E1926000E1A221B66
:1079DF00221C2280A202D0010E01D0000E346E4074
:1079EF000E19181CE1420E1A1819E10F0E1B181C64
:1079FF0010D8A414D080A402D0010E01D0000E31F3
:107A0F006E3150D8A40ED0CDEC39F0000E196E00A7
:107A1F000E1A6E000E1B6E000E1C6E03D03404D8AF
:107A2F00B4D2D7000E196E000E1A6E000E1B6E0028
:107A3F000E1C6E33C041F0120035D023EC37F06CC2
:107A4F00D03CEC37F069D01DEC38F066D036EC380E
:107A5F00F063D04FEC38F060D068EC38F05DD08137
:107A6F00EC38F05AD09AEC38F057D0B3EC38F054D9
:107A7F00D0CCEC38F051D087EC37F04ED0A0EC37AB
:107A8F00F04BD0B9EC37F048D0D2EC37F045D0EB13
:107A9F00EC37F042D004EC38F03FD0000E266E00E9
:107AAF000E256E3AD025C039F026C03AF03A500074
:107ABF000AD8A4F3D73950000AD8B4BFD7010AD8CF
:107ACF00B4BFD7030AD8B4BFD7010AD8B4BFD707FA
:107ADF000AD8B4BFD7010AD8B4BFD7030AD8B4BFE6
:107AEF00D7010AD8B4BFD70F0AD8B4BFD7010AD865
:107AFF00B4BFD7030AD8B4BFD7010AD8B4BFD707CA
:107B0F000AD8B4BFD7010AD8B4BFD7030AD8B4BFB5
:107B1F00D7010AD8B4BFD7C1D782A002D0010E01B6
:107B2F00D0000E306E3050D8A40DD03F04D8A40A28
:107B3F00D0254A262A000E116E000E126E000E136B
:107B4F006E000E146E30C03FF080AA02D0010E01FD
:107B5F00D0000E436E4350D8A4D5D04004D8B4986B
:107B6F00D0D1D0000E376E020E366E000E386E86F4
:107B7F00EC36F088EC39F0C6D0000E376E020E36B8
:107B8F006E010E386E86EC36F0F4D7000E376E02AB
:107B9F000E366E020E386E86EC36F0EBD7000E37CF
:107BAF006E020E366E030E386E86EC36F0E2D7009C
:107BBF000E376E020E366E040E386E86EC36F0D926
:107BCF00D7000E376E020E366E050E386E86EC3607
:107BDF00F0D0D7000E376E020E366E060E386E8658
:107BEF00EC36F0C7D7000E376E020E366E070E3822
:107BFF006E86EC36F0BED7000E376E020E366E086C
:107C0F000E386E86EC36F0B5D7000E376E020E3694
:107C1F006E090E386E86EC36F0ACD7000E376E025A
:107C2F000E366E0A0E386E86EC36F0A3D7000E377E
:107C3F006E020E366E0B0E386E86EC36F09AD7004B
:107C4F000E376E020E366E0C0E386E86EC36F091D5
:107C5F00D7000E376E020E366E0D0E386E86EC366E
:107C6F00F088D7000E376E020E366E0E0E386E8607
:107C7F00EC36F07FD7000E376E020E366E0F0E38D1
:107C8F006E86EC36F076D7000E266E000E256E3A15
:107C9F00D025C039F026C03AF03A50000AD8A4F3E4
:107CAF00D73950000AD8B45DD7010AD8B465D703C5
:107CBF000AD8B46BD7010AD8B471D7070AD8B477EA
:107CCF00D7010AD8B47DD7030AD8B483D7010AD80D
:107CDF00B489D70F0AD8B48FD7010AD8B495D70370
:107CEF000AD8B49BD7010AD8B4A1D7070AD8B4A72A
:107CFF00D7010AD8B4ADD7030AD8B4B3D7010AD87D
:107D0F00B4B9D7C1D743C040F0E5EC38F02D04D853
:107D1F00A41200C8D635D023EC37F06CD03CEC372A
:107D2F00F069D01DEC38F066D036EC38F063D04FE8
:107D3F00EC38F060D068EC38F05DD081EC38F05A58
:107D4F00D09AEC38F057D0B3EC38F054D0CCEC38A4
:107D5F00F051D087EC37F04ED0A0EC37F04BD0B9C4
:107D6F00EC37F048D0D2EC37F045D0EBEC37F0429F
:107D7F00D004EC38F03FD0000E266E000E256E3A80
:107D8F00D025C039F026C03AF03A50000AD8A4F3F3
:107D9F00D73950000AD8B4BFD7010AD8B4BFD70318
:107DAF000AD8B4BFD7010AD8B4BFD7070AD8B4BF0F
:107DBF00D7010AD8B4BFD7030AD8B4BFD7010AD89E
:107DCF00B4BFD70F0AD8B4BFD7010AD8B4BFD703EF
:107DDF000AD8B4BFD7010AD8B4BFD7070AD8B4BFDF
:107DEF00D7010AD8B4BFD7030AD8B4BFD7010AD86E
:107DFF00B4BFD7C1D782A002D0010E01D0000E3080
:107E0F006E3050D8A40DD03F04D8A40AD0254A26EE
:107E1F002A000E116E000E126E000E136E000E145D
:107E2F006E30C03FF080AA02D0010E01D0000E4389
:107E3F006E4350D8A4D5D04004D8B498D0D1D00038
:107E4F000E376E040E366E000E386E86EC36F088E6
:107E5F00EC39F0C6D0000E376E040E366E010E38B8
:107E6F006E86EC36F0F4D7000E376E040E366E02C7
:107E7F000E386E86EC36F0EBD7000E376E040E36EA
:107E8F006E030E386E86EC36F0E2D7000E376E04B6
:107E9F000E366E040E386E86EC36F0D9D7000E37DC
:107EAF006E040E366E050E386E86EC36F0D0D700A7
:107EBF000E376E040E366E060E386E86EC36F0C731
:107ECF00D7000E376E040E366E070E386E86EC3600
:107EDF00F0BED7000E376E040E366E080E386E8663
:107EEF00EC36F0B5D7000E376E040E366E090E382D
:107EFF006E86EC36F0ACD7000E376E040E366E0A77
:107F0F000E386E86EC36F0A3D7000E376E040E36A1
:107F1F006E0B0E386E86EC36F09AD7000E376E0465
:107F2F000E366E0C0E386E86EC36F091D7000E378B
:107F3F006E040E366E0D0E386E86EC36F088D70056
:107F4F000E376E040E366E0E0E386E86EC36F07FE0
:107F5F00D7000E376E040E366E0F0E386E86EC3667
:107F6F00F076D7000E266E000E256E3AD025C0395A
:107F7F00F026C03AF03A50000AD8A4F3D73950008F
:107F8F000AD8B45DD7010AD8B465D7030AD8B46B41
:107F9F00D7010AD8B471D7070AD8B477D7010AD84E
:107FAF00B47DD7030AD8B483D7010AD8B489D70FC1
:107FBF000AD8B48FD7010AD8B495D7030AD8B49B7F
:107FCF00D7010AD8B4A1D7070AD8B4A7D7010AD8BE
:107FDF00B4ADD7030AD8B4B3D7010AD8B4B9D7C14F
:107FEF00D743C040F0E5EC38F02D04D8A41200C8F8
:017FFF00D6AB
:020000040020DA
:08000000FFFFFFFFFFFFFFFF00
:020000040030CA
:0E000000000C191EFF8381FF0FC00FE00F40A0
:00000001FF
