:020000040000FA
:04000000C5EF3EF01A
:107D7100010F0EC16E9282E70E936E81968198D7A4
:107D8100EC3EF038EC3FF0FBD7710EF66E7D0EF74E
:107D91006E000EF86E0900F5CF10F000EE01F00C48
:107DA1000EEE6AE806FDE10001B9EF3EF080A202A5
:107DB100D0010E01D0000E0F6E020E0E6E450E0D9B
:107DC1006EAA0EE82EFED70D2EFCD70E2EFAD70F77
:107DD10004D8A44AD00C50D8A447D0020E0E6E4548
:107DE1000E0D6EAA0EE82EFED70D2EFCD70E2EFA22
:107DF100D781AC02D0010E01D0000E096E0F04D85C
:107E0100A433D00C50D8A430D00950D8A42DD0819F
:107E11008681AE02D0010E01D0000E0A6E010E0560
:107E210026000E062207220822500E051811E1F83D
:107E31000E06180EE10C0E07180810D8A409D00080
:107E41000E056E000E066E000E076E000E086E0324
:107E5100D00A04D8B4DCD78196000E056E000E0658
:107E61006E000E076E000E086E0FC00CF01200813E
:107E7100A402D0010E01D0000E0B6E020E0E6E4553
:107E81000E0D6EAA0EE82EFED70D2EFCD70E2EFA81
:107E9100D70B50D8A4B1D01004D8A4AED0020E0E86
:107EA1006E450E0D6EAA0EE82EFED70D2EFCD70ED6
:107EB1002EFAD781AC02D0010E01D0000E096E0B53
:107EC10050D8A49AD01004D8A497D00904D8A49467
:107ED100D0818881AC02D0010E01D0000E096E0163
:107EE1000E0526000E062207220822500E05181143
:107EF100E1F80E06180EE10C0E07180810D8A409B7
:107F0100D0000E056E000E066E000E076E000E0804
:107F11006E03D00904D8B4DCD78198000E056E0039
:107F21000E066E000E076E000E086E80A202D001D2
:107F31000E01D0000E0F6E010E0126000E0222036B
:107F410022042280A202D0010E01D0000E0F6E4049
:107F51000E011847E1420E021844E10F0E03180406
:107F610010D8A43FD081AC02D0010E01D0000E097F
:107F71006E0950D8A439D0818681AE02D0010E019C
:107F8100D0000E0A6E010E0526000E0622072208F9
:107F910022500E051811E1F80E06180EE10C0E071D
:107FA100180810D8A409D0000E056E000E066E0048
:107FB1000E076E000E086E03D00A04D8B4DCD78118
:107FC10096000E056E000E066E000E076E000E087E
:107FD1006E000E016E000E026E000E036E000E04A6
:107FE1006E03D00F04D8B4A7D7000E016E000E02A5
:0F7FF1006E000E036E000E046E0BC010F0120037
:020000040020DA
:08000000FFFFFFFFFFFFFFFF00
:020000040030CA
:0E000000000C191EFF8381FF0FC00FE00F40A0
:00000001FF
