:020000040000FA
:040000004CEF3EF093
:107C970001970EF66E7C0EF76E000EF86E0900F572
:107CA700CF28F000EE01F0220EEE6AE806FDE100B3
:107CB7000172EF3EF0C282C2B2FED7C4CF19F01AEA
:107CC7006A19501A6E196AC3501924196E000E1AD0
:107CD700201A6E19C023F01AC024F012000E0EC12C
:107CE7006E92809282928894929494949C949E929D
:107CF700849286C30EC216F80EC016C08EC28000CC
:107D07000E936E8168829E829C82928294B3EC3E2F
:107D1700F046EC3FF0FBD75EEC3EF023C01BF024AF
:107D2700C01CF01CBE17D0210E1B5C020E1C58D8BD
:107D3700A011D08D0E816E828E080EE82EFED70020
:107D4700F0829E8F0E816E828C080EE82EFED70081
:107D5700F0829C1200829E829C110E816E1200801E
:107D6700A202D0010E01D0000E276E020E266E452C
:107D77000E256EAA0EE82EFED7252EFCD7262EFA44
:107D8700D72704D8A42BD02250D8A428D0020E2657
:107D97006E450E256EAA0EE82EFED7252EFCD72699
:107DA7002EFAD780A402D0010E01D0000E1F6E2735
:107DB70004D8A414D02250D8A411D01F50D8A40E90
:107DC700D0270E266E0D0E256E260EE82EFED72521
:107DD7002EFCD7262EFAD700D0F5EC3EF027C0228E
:107DE700F01200828280A602D0010E01D0000E2080
:107DF7006E010E1526000E1622172218225EEC3E83
:107E0700F023C01BF024C01CF08FEC3EF0900E1541
:107E17001811E1D00E16180EE1030E17181810D816
:107E2700A409D0000E156E000E166E000E176E0018
:107E37000E186E1AD01CBE15D0210E1B5C020E1C2C
:107E470058D8A00FD01D4A1E2A1EBE0BD0F50E1DF6
:107E57005C010E1E58D8A005D0000E1E6E000E1D28
:107E67006E03D02004D8B4BDD78292000E156E00E1
:107E77000E166E000E176E000E186E000E1E6E00A8
:107E87000E1D6E120080A802D0010E01D0000E2137
:107E97006E020E266E450E256EAA0EE82EFED7251B
:107EA7002EFCD7262EFAD72150D8A4A3D02804D841
:107EB700A4A0D0020E266E450E256EAA0EE82EFE51
:107EC700D7252EFCD7262EFAD780A402D0010E0183
:107ED700D0000E1F6E2150D8A48CD02804D8A489B6
:107EE700D01F04D8A486D0828480A402D0010E01BA
:107EF700D0000E1F6E010E1526000E16221722182F
:107F0700228FEC3EF0900E151811E1D00E16180EC8
:107F1700E1030E17181810D8A409D0000E156E002B
:107F27000E166E000E176E000E186E1AD01CBE15B8
:107F3700D0210E1B5C020E1C58D8A00FD01D4A1E64
:107F47002A1EBE0BD0F50E1D5C010E1E58D8A005CB
:107F5700D0000E1E6E000E1D6E03D01F04D8B4C3D2
:107F6700D78294000E156E000E166E000E176E0067
:107F77000E186E000E1E6E000E1D6E80A202D0013E
:107F87000E01D0000E276E010E1126000E122213CD
:107F970022142280A202D0010E01D0000E276E40CB
:107FA7000E11181CE1420E121819E10F0E131814C6
:107FB70010D8A414D080A402D0010E01D0000E1F47
:107FC7006E1F50D8A40ED0F5EC3EF0000E116E00D7
:107FD7000E126E000E136E000E146E03D02704D817
:107FE700B4D2D7000E116E000E126E000E136E0083
:097FF7000E146E21C028F01200E6
:020000040020DA
:08000000FFFFFFFFFFFFFFFF00
:020000040030CA
:0E000000000C191EFF8381FF0FC00FE00F40A0
:00000001FF
