:020000040000FA
:04000000C7EF33F023
:1060BB0001000000010101829E829C110E816E1273
:1060CB000037C0A9FFA69EA69CA680A8501200AAC6
:1060DB000E816E828E080EE82EFED700F0829EABEC
:1060EB000E816E828C080EE82EFED700F0829C1279
:1060FB000037C0A9FF39C0A8FFA69EA69CA684F2B4
:10610B009E550EA76EAA0EA76EA682F28EA6B2FEA3
:10611B00D7120037503902F3CF3BF0F4CF3CF037B6
:10612B00503A02F3503C2638503902F3503C263B90
:10613B00C037F03CC038F01200C282C2B2FED7C4E6
:10614B00CF23F0246A2350246E236AC350232423C5
:10615B006E000E2420246E23C037F024C038F012BA
:10616B0000A2EC30F037C029F038C02AF02ABE0963
:10617B00D00D0E295C020E2A58D8A003D06DEC303E
:10618B00F0120061EC30F012008168829E0B0E372A
:10619B006E620EE82EFED7372EFCD700D0829E28DB
:1061AB000E816E828C0B0E376E620EE82EFED73789
:1061BB002EFCD700D0829C12008168829E0B0E377A
:1061CB006E620EE82EFED7372EFCD700D0829E7D56
:1061DB000E816E828C0B0E376E620EE82EFED73759
:1061EB002EFCD700D0829C1200DF0E816E828E0BAC
:1061FB000E376E620EE82EFED7372EFCD700D082FC
:10620B009E8168829C0B0E376E620EE82EFED7378E
:10621B002EFCD700D0829C12008168829E0B0E3719
:10622B006E620EE82EFED7372EFCD700D0829EA4CE
:10623B000E816E828C0B0E376E620EE82EFED737F8
:10624B002EFCD700D0829C12008168829E0B0E37E9
:10625B006E620EE82EFED7372EFCD700D0829E64DE
:10626B000E816E828C0B0E376E620EE82EFED737C8
:10627B002EFCD700D0829C12008168829E0B0E37B9
:10628B006E620EE82EFED7372EFCD700D0829E71A1
:10629B000E816E828C0B0E376E620EE82EFED73798
:1062AB002EFCD700D0829C12008168829E0B0E3789
:1062BB006E620EE82EFED7372EFCD700D0829E6280
:1062CB000E816E828C0B0E376E620EE82EFED73768
:1062DB002EFCD700D0829C12008168829E0B0E3759
:1062EB006E620EE82EFED7372EFCD700D0829E2290
:1062FB000E816E828C0B0E376E620EE82EFED73738
:10630B002EFCD700D0829C12008168829E0B0E3728
:10631B006E620EE82EFED7372EFCD700D0829E7C05
:10632B000E816E828C0B0E376E620EE82EFED73707
:10633B002EFCD700D0829C12008168829E0B0E37F8
:10634B006E620EE82EFED7372EFCD700D0829E2031
:10635B000E816E828C0B0E376E620EE82EFED737D7
:10636B002EFCD700D0829C12008168829E0B0E37C8
:10637B006E620EE82EFED7372EFCD700D0829E60C1
:10638B000E816E828C0B0E376E620EE82EFED737A7
:10639B002EFCD700D0829C1200B00E816E828E0B29
:1063AB000E376E620EE82EFED7372EFCD700D0824A
:1063BB009E7D0E816E828C0B0E376E620EE82EFE6A
:1063CB00D7372EFCD700D0829C1200B00E816E8284
:1063DB008E0B0E376E620EE82EFED7372EFCD700D3
:1063EB00D0829EA40E816E828C0B0E376E620EE8ED
:1063FB002EFED7372EFCD700D0829C1200B00E8118
:10640B006E828E0B0E376E620EE82EFED7372EFC89
:10641B00D700D0829E640E816E828C0B0E376E621B
:10642B000EE82EFED7372EFCD700D0829C1200B080
:10643B000E816E828E0B0E376E620EE82EFED737F4
:10644B002EFCD700D0829E710E816E828C0B0E3784
:10645B006E620EE82EFED7372EFCD700D0829C1230
:10646B0000DF0E816E828E0B0E376E620EE82EFEF3
:10647B00D7372EFCD700D0829EDF0E816E828C0B1D
:10648B000E376E620EE82EFED7372EFCD700D08269
:10649B009C12007D0E816E828E0B0E376E620EE8A3
:1064AB002EFED7372EFCD700D0829E280E816E820F
:1064BB008C0B0E376E620EE82EFED7372EFCD700F4
:1064CB00D0829C12007D0E816E828E0B0E376E6217
:1064DB000EE82EFED7372EFCD700D0829E7D0E8184
:1064EB006E828C0B0E376E620EE82EFED7372EFCAB
:1064FB00D700D0829C12007D0E816E828E0B0E37E0
:10650B006E620EE82EFED7372EFCD700D0829EA4EB
:10651B000E816E828C0B0E376E620EE82EFED73715
:10652B002EFCD700D0829C12007D0E816E828E0BCA
:10653B000E376E620EE82EFED7372EFCD700D082B8
:10654B009E640E816E828C0B0E376E620EE82EFEF1
:10655B00D7372EFCD700D0829C12007D0E816E8225
:10656B008E0B0E376E620EE82EFED7372EFCD70041
:10657B00D0829E710E816E828C0B0E376E620EE88E
:10658B002EFED7372EFCD700D0829C12007D0E81B9
:10659B006E828E0B0E376E620EE82EFED7372EFCF8
:1065AB00D700D0829E620E816E828C0B0E376E628C
:1065BB000EE82EFED7372EFCD700D0829C12007D22
:1065CB000E816E828E0B0E376E620EE82EFED73763
:1065DB002EFCD700D0829E220E816E828C0B0E3742
:1065EB006E620EE82EFED7372EFCD700D0829C129F
:1065FB00007D0E816E828E0B0E376E620EE82EFEC4
:10660B00D7372EFCD700D0829E200E816E828C0B4A
:10661B000E376E620EE82EFED7372EFCD700D082D7
:10662B009C1200A40E816E828E0B0E376E620EE8EA
:10663B002EFED7372EFCD700D0829E280E816E827D
:10664B008C0B0E376E620EE82EFED7372EFCD70062
:10665B00D0829C1200A40E816E828E0B0E376E625E
:10666B000EE82EFED7372EFCD700D0829EA40E81CB
:10667B006E828C0B0E376E620EE82EFED7372EFC19
:10668B00D700D0829C1200A40E816E828E0B0E3727
:10669B006E620EE82EFED7372EFCD700D0829E718D
:1066AB000E816E828C0B0E376E620EE82EFED73784
:1066BB002EFCD700D0829C1200A40E816E828E0B12
:1066CB000E376E620EE82EFED7372EFCD700D08227
:1066DB009E220E816E828C0B0E376E620EE82EFEA2
:1066EB00D7372EFCD700D0829C1200A40E816E826D
:1066FB008E0B0E376E620EE82EFED7372EFCD700B0
:10670B00D0829E200E816E828C0B0E376E620EE84D
:10671B002EFED7372EFCD700D0829C1200640E8140
:10672B006E828E0B0E376E620EE82EFED7372EFC66
:10673B00D700D0829E280E816E828C0B0E376E6234
:10674B000EE82EFED7372EFCD700D0829C1200010C
:10675B000E1126000E122213221422580E1118109D
:10676B00E11B0E121813101410D8A41200000E2FD8
:10677B006E000E116E000E126E000E136E000E14D4
:10678B006E1200BB0EF66E600EF76E000EF86E000A
:10679B00EE4FF010EE07F00900F5CFEEFFE550E1FC
:1067AB0050FAE100EE01F0360EEE6AE806FDE1006C
:1067BB000EF86E000149EF34F0000E3F6E000E40F4
:1067CB006E000E416E000E426E37A008D03B503F5C
:1067DB00263C5040223D5041223E504222D8903B15
:1067EB00363C363D363E36D8903A3239323832372F
:1067FB00323750381039103A10D8A4E6D73FC0378B
:10680B00F040C038F041C039F042C03AF01200807D
:10681B00A602D0010E01D0000E4E6E80AA02D0014E
:10682B000E01D0000E4D6E4E04D8A406D04D50D89C
:10683B00A403D08168828E1200254A262A26BE0622
:10684B00D0265007E1020E255CD8B003D0816882B8
:10685B008E120026BE11D0265004E1020E255CD804
:10686B00A00BD026BE06D0265007E1040E255CD81F
:10687B00B003D08168829E12008168829E000E2632
:10688B006E000E256E12000E0EC16E9280928694D3
:10689B008094929494949C949E9288928A928292E1
:1068AB0084C30EC216F80EC016C08EC280000E93A3
:1068BB006E8168829E829C82928294000E386E0159
:1068CB000E376E66EC30F00009D8B402D0010E0121
:1068DB00D0000E4C6E000E386E020E376E66EC302A
:1068EB00F0476E47504A6E4B6A000E386E040E37F7
:1068FB006E66EC30F0476E4750486E496A0DEC34CB
:10690B00F0D2EC34F059EC3BF045EC3DF0F7D761AD
:10691B00EC30F00D0E396EAF0E386EB60EE82EFE63
:10692B00D7382EFCD7392EFAD700D0FAEC30F0013D
:10693B000E1526000E16221722182218BEF6D7188F
:10694B00501710161004E1FA0E155CD8A0EED70004
:10695B000E156E000E166E000E176E000E186E36AC
:10696B00EC32F0010E1526000E16221722182218F3
:10697B00BEF6D718501710161004E1FA0E155CD896
:10698B00A0EED7000E156E000E166E000E176E00E1
:10699B000E186E000E2F6E120080A202D0010E0197
:1069AB00D0000E336E070E3E6E7D0EE82EFED73EE8
:1069BB002EFCD700F03350D8A422D05404D8A41FF7
:1069CB00D0010E316E3104D8A41AD03004D8A417DC
:1069DB00D0010E2F6E000E316E000E306E000E28A1
:1069EB006E000E276E080E3F6E9D0E3E6E060EE875
:1069FB002EFED73E2EFCD73F2EFAD73EEC36F03389
:106A0B00C054F080A402D0010E01D0000E326E07EC
:106A1B000E3E6E7D0EE82EFED73E2EFCD700F032DA
:106A2B0050D8A422D05304D8A41FD0010E306E30FE
:106A3B0004D8A41AD03104D8A417D0010E2F6E009D
:106A4B000E306E000E316E000E286E000E276E0893
:106A5B000E3F6E9D0E3E6E060EE82EFED73E2EFCB2
:106A6B00D73F2EFAD73EEC36F032C053F012000B64
:106A7B00D0CAEC30F018D0E2EC30F015D0000E2874
:106A8B006E000E276E10D027C03AF028C03BF03BAB
:106A9B0050000AD8A4F3D73A50000AD8B4E9D7016A
:106AAB000AD8B4E9D7EBD780A402D0010E01D000ED
:106ABB000E326E3250D8A40DD05304D8A40AD0276E
:106ACB004A282A000E116E000E126E000E136E0075
:106ADB000E146E32C053F080A202D0010E01D00012
:106AEB000E336E000E116E000E126E000E136E0042
:106AFB000E146E3350D8A42DD05404D8B41AD02908
:106B0B00D0000E386E010E376E000E396E7EEC30F3
:106B1B00F08DEC34F01ED0000E386E010E376E0186
:106B2B000E396E7EEC30F0F4D7000E286E000E2777
:106B3B006E10D027C03AF028C03BF03B50000AD86B
:106B4B00A4F3D73A50000AD8B4DBD7010AD8B4E380
:106B5B00D7EBD733C054F0ADEC33F02F04D8A412DD
:106B6B000092D7000E1D6E000E1E6E000E1F6E00E3
:106B7B000E206E1A0E3A6E5E0E396E6E0EE82EFEFB
:106B8B00D7392EFCD73A2EFAD700D0828280AA02B0
:106B9B00D0010E01D0000E4D6E4D50D8A414D0076D
:106BAB000E3A6E580E396E5A0EE82EFED7392EFC61
:106BBB00D73A2EFAD780AA02D0010E01D0000E4D83
:106BCB006E4D50D8B43CD0010E1D26000E1E221F58
:106BDB00222022A2EC30F037C029F038C02AF0B6C0
:106BEB00EC30F0900E1D1811E1D00E1E180EE103C3
:106BFB000E1F182010D8A409D0000E1D6E000E1EFB
:106C0B006E000E1F6E000E206E1AD02ABE15D00D10
:106C1B000E295C020E2A58D8A00FD02B4A2C2A2CF6
:106C2B00BE0BD0A10E2B5C0F0E2C58D8A005D0009C
:106C3B000E2C6E000E2B6E03D04D04D8B4A6D7824B
:106C4B000E396EDE0EE82EFED7392EFCD78292005F
:106C5B000E1D6E000E1E6E000E1F6E000E206E00BF
:106C6B000E2C6E000E2B6E000E316E000E306E125F
:106C7B000011D0D2EC31F024D0EBEC31F021D00468
:106C8B00EC32F01ED01DEC32F01BD0000E286E0043
:106C9B000E276E16D027C03CF028C03DF03D5000AB
:106CAB000AD8A4F3D73C50000AD8B4E3D7010AD8CA
:106CBB00B4E3D7030AD8B4E3D7010AD8B4E3D7E5D2
:106CCB00D780A402D0010E01D0000E326E3250D804
:106CDB00A40DD05304D8A40AD0274A282A000E1199
:106CEB006E000E126E000E136E000E146E32C05339
:106CFB00F080A202D0010E01D0000E336E3350D8BB
:106D0B00A47AD05404D8A477D0000E116E000E12C2
:106D1B006E000E136E000E146E58D0000E286E000F
:106D2B000E276E080E3D6E9D0E3C6E060EE82EFE77
:106D3B00D73C2EFCD73D2EFAD73DEC35F05CD0007E
:106D4B000E286E000E276E080E3D6E9D0E3C6E06D5
:106D5B000EE82EFED73C2EFCD73D2EFAD76DEC3825
:106D6B00F04AD0000E286E010E276E080E3D6E9D68
:106D7B000E3C6E060EE82EFED73C2EFCD73D2EFAAF
:106D8B00D709EC37F038D0000E286E000E276E08AE
:106D9B000E3D6E9D0E3C6E060EE82EFED73C2EFC75
:106DAB00D73D2EFAD7E3EC39F026D0000E286E0033
:106DBB000E276E080E3D6E9D0E3C6E060EE82EFEE7
:106DCB00D73C2EFCD73D2EFAD716D027C03CF02847
:106DDB00C03DF03D50000AD8A4E8D73C50000AD87B
:106DEB00B49CD7010AD8B4ABD7030AD8B4BAD7012D
:106DFB000AD8B4C9D7DAD733C054F0ADEC33F02F7F
:106E0B0004D8A4120047D732D012EC31F066D0422E
:106E1B00EC31F063D072EC31F060D0A2EC31F05D6C
:106E2B00D04FEC32F05AD081EC32F057D0B3EC3279
:106E3B00F054D0E5EC32F051D0FEEC32F04ED017DE
:106E4B00EC33F04BD030EC33F048D049EC33F04519
:106E5B00D062EC33F042D07BEC33F03FD094EC3388
:106E6B00F03CD0000E286E010E276E37D027C03AAB
:106E7B00F028C03BF03B50000AD8A4F3D73A50019E
:106E8B000AD8B4C2D7030AD8B4C2D7010AD8B4C23D
:106E9B00D7070AD8B4C2D7010AD8B4C2D7030AD8C5
:106EAB00B4C2D7010AD8B4C2D70F0AD8B4C2D7011B
:106EBB000AD8B4C2D7030AD8B4C2D7010AD8B4C20D
:106ECB00D7070AD8B4C2D7010AD8B4C2D7030AD895
:106EDB00B4C2D7010AD8B4C2D7C4D780A402D00198
:106EEB000E01D0000E326E3250D8A40DD05304D800
:106EFB00A40AD0274A282A000E116E000E126E002B
:106F0B000E136E000E146E32C053F080A202D0012D
:106F1B000E01D0000E336E000E116E000E126E00BD
:106F2B000E136E000E146E3350D8A4C9D05404D86F
:106F3B00B48FD0C5D0000E386E030E376E010E39EC
:106F4B006E7EEC30F08DEC34F0BAD0000E386E0360
:106F5B000E376E020E396E7EEC30F0F4D7000E3821
:106F6B006E030E376E030E396E7EEC30F0EBD700EE
:106F7B000E386E030E376E040E396E7EEC30F0E277
:106F8B00D7000E386E030E376E050E396E7EEC3061
:106F9B00F0D9D7000E386E030E376E060E396E7EA3
:106FAB00EC30F0D0D7000E386E030E376E070E396B
:106FBB006E7EEC30F0C7D7000E386E030E376E08BE
:106FCB000E396E7EEC30F0BED7000E386E030E37E6
:106FDB006E090E396E7EEC30F0B5D7000E386E03AD
:106FEB000E376E0A0E396E7EEC30F0ACD7000E38D1
:106FFB006E030E376E0B0E396E7EEC30F0A3D7009E
:10700B000E386E030E376E0C0E396E7EEC30F09A26
:10701B00D7000E386E030E376E0D0E396E7EEC30C8
:10702B00F091D7000E386E030E376E0E0E396E7E52
:10703B00EC30F088D7000E386E030E376E0F0E391A
:10704B006E7EEC30F07FD7000E286E010E276E3768
:10705B00D027C03AF028C03BF03B50000AD8A4F32D
:10706B00D73A50010AD8B466D7030AD8B46ED70101
:10707B000AD8B474D7070AD8B47AD7010AD8B4801F
:10708B00D7030AD8B486D7010AD8B48CD70F0AD83D
:10709B00B492D7010AD8B498D7030AD8B49ED701B3
:1070AB000AD8B4A4D7070AD8B4AAD7010AD8B4B05F
:1070BB00D7030AD8B4B6D7010AD8B4BCD7C4D733D0
:1070CB00C054F0ADEC33F02F04D8A41200CFD6355A
:1070DB00D0CAEC30F06CD0E2EC30F069D012EC316D
:1070EB00F066D02AEC31F063D042EC31F060D05A2C
:1070FB00EC31F05DD072EC31F05AD08AEC31F057B4
:10710B00D0A2EC31F054D0BAEC31F051D04FEC327C
:10711B00F04ED068EC32F04BD081EC32F048D09A84
:10712B00EC32F045D0B3EC32F042D0CCEC32F03F45
:10713B00D0000E286E000E276E3AD027C03AF028EA
:10714B00C03BF03B50000AD8A4F3D73A50000AD802
:10715B00B4BFD7010AD8B4BFD7030AD8B4BFD7017D
:10716B000AD8B4BFD7070AD8B4BFD7010AD8B4BF5F
:10717B00D7030AD8B4BFD7010AD8B4BFD70F0AD8E0
:10718B00B4BFD7010AD8B4BFD7030AD8B4BFD7014D
:10719B000AD8B4BFD7070AD8B4BFD7010AD8B4BF2F
:1071AB00D7030AD8B4BFD7010AD8B4BFD7C1D78089
:1071BB00A402D0010E01D0000E326E3250D8A40DB5
:1071CB00D05304D8A40AD0274A282A000E116E00E7
:1071DB000E126E000E136E000E146E32C053F08042
:1071EB00A202D0010E01D0000E336E000E116E0004
:1071FB000E126E000E136E000E146E3350D8A4D503
:10720B00D05404D8B498D0D1D0000E386E020E37BB
:10721B006E000E396E7EEC30F08DEC34F0C6D00083
:10722B000E386E020E376E010E396E7EEC30F0F4B6
:10723B00D7000E386E020E376E020E396E7EEC30B2
:10724B00F0EBD7000E386E020E376E030E396E7EE2
:10725B00EC30F0E2D7000E386E020E376E040E39AA
:10726B006E7EEC30F0D9D7000E386E020E376E05FD
:10727B000E396E7EEC30F0D0D7000E386E020E3722
:10728B006E060E396E7EEC30F0C7D7000E386E02EC
:10729B000E376E070E396E7EEC30F0BED7000E380F
:1072AB006E020E376E080E396E7EEC30F0B5D700DD
:1072BB000E386E020E376E090E396E7EEC30F0AC66
:1072CB00D7000E386E020E376E0A0E396E7EEC301A
:1072DB00F0A3D7000E386E020E376E0B0E396E7E92
:1072EB00EC30F09AD7000E386E020E376E0C0E395A
:1072FB006E7EEC30F091D7000E386E020E376E0DAD
:10730B000E396E7EEC30F088D7000E386E020E37D9
:10731B006E0E0E396E7EEC30F07FD7000E386E029B
:10732B000E376E0F0E396E7EEC30F076D7000E28CE
:10733B006E000E276E3AD027C03AF028C03BF03BC8
:10734B0050000AD8A4F3D73A50000AD8B45DD7013D
:10735B000AD8B465D7030AD8B46BD7010AD8B4716D
:10736B00D7070AD8B477D7010AD8B47DD7030AD880
:10737B00B483D7010AD8B489D70F0AD8B48FD701F1
:10738B000AD8B495D7030AD8B49BD7010AD8B4A1AD
:10739B00D7070AD8B4A7D7010AD8B4ADD7030AD8F0
:1073AB00B4B3D7010AD8B4B9D7C1D733C054F0ADF1
:1073BB00EC33F02F04D8A41200C0D635D0CAEC3071
:1073CB00F06CD0E2EC30F069D012EC31F066D02AE0
:1073DB00EC31F063D042EC31F060D05AEC31F05D1F
:1073EB00D072EC31F05AD08AEC31F057D0A2EC319C
:1073FB00F054D0BAEC31F051D04FEC32F04ED068A3
:10740B00EC32F04BD081EC32F048D09AEC32F045B4
:10741B00D0B3EC32F042D0CCEC32F03FD0000E289F
:10742B006E000E276E3AD027C03AF028C03BF03BD7
:10743B0050000AD8A4F3D73A50000AD8B4BFD701EA
:10744B000AD8B4BFD7030AD8B4BFD7010AD8B4BF80
:10745B00D7070AD8B4BFD7010AD8B4BFD7030AD805
:10746B00B4BFD7010AD8B4BFD70F0AD8B4BFD7015E
:10747B000AD8B4BFD7030AD8B4BFD7010AD8B4BF50
:10748B00D7070AD8B4BFD7010AD8B4BFD7030AD8D5
:10749B00B4BFD7010AD8B4BFD7C1D780A402D001DB
:1074AB000E01D0000E326E3250D8A40DD05304D83A
:1074BB00A40AD0274A282A000E116E000E126E0065
:1074CB000E136E000E146E32C053F080A202D00168
:1074DB000E01D0000E336E000E116E000E126E00F8
:1074EB000E136E000E146E3350D8A4D5D05404D89E
:1074FB00B498D0D1D0000E386E040E376E000E3912
:10750B006E7EEC30F08DEC34F0C6D0000E386E048D
:10751B000E376E010E396E7EEC30F0F4D7000E385C
:10752B006E040E376E020E396E7EEC30F0EBD70028
:10753B000E386E040E376E030E396E7EEC30F0E2B1
:10754B00D7000E386E040E376E040E396E7EEC309B
:10755B00F0D9D7000E386E040E376E050E396E7EDD
:10756B00EC30F0D0D7000E386E040E376E060E39A5
:10757B006E7EEC30F0C7D7000E386E040E376E07F8
:10758B000E396E7EEC30F0BED7000E386E040E371F
:10759B006E080E396E7EEC30F0B5D7000E386E04E7
:1075AB000E376E090E396E7EEC30F0ACD7000E380C
:1075BB006E040E376E0A0E396E7EEC30F0A3D700D8
:1075CB000E386E040E376E0B0E396E7EEC30F09A61
:1075DB00D7000E386E040E376E0C0E396E7EEC3003
:1075EB00F091D7000E386E040E376E0D0E396E7E8D
:1075FB00EC30F088D7000E386E040E376E0E0E3955
:10760B006E7EEC30F07FD7000E386E040E376E0FA7
:10761B000E396E7EEC30F076D7000E286E000E27FA
:10762B006E3AD027C03AF028C03BF03B50000AD846
:10763B00A4F3D73A50000AD8B45DD7010AD8B46581
:10764B00D7030AD8B46BD7010AD8B471D7070AD8B5
:10765B00B477D7010AD8B47DD7030AD8B483D7013E
:10766B000AD8B489D70F0AD8B48FD7010AD8B495E2
:10767B00D7030AD8B49BD7010AD8B4A1D7070AD825
:10768B00B4A7D7010AD8B4ADD7030AD8B4B3D7017E
:10769B000AD8B4B9D7C1D733C054F0ADEC33F02FFF
:1076AB0004D8A41200C0D680A602D0010E01D000CF
:1076BB000E4E6E020E3E6E450E3D6EAA0EE82EFE6F
:1076CB00D73D2EFCD73E2EFAD74E04D8A4D5D136B3
:1076DB0050D8A4D2D1020E3E6E450E3D6EAA0EE8D6
:1076EB002EFED73D2EFCD73E2EFAD780A802D00116
:1076FB000E01D0000E346E4E04D8A4BED13650D835
:10770B00A4BBD13450D8A4B8D1020E3E6E450E3D69
:10771B006EAA0EE82EFED73D2EFCD73E2EFAD700D2
:10772B000E1D6E000E1E6E000E1F6E000E206E00E4
:10773B000E386E020E376E66EC30F03D6E3D504AE1
:10774B006E4B6A4AC037F04BC038F0030E3A6EE806
:10775B000E396E8FEC30F037C04AF038C04BF0F971
:10776B00D00D0E3E6EAF0E3D6EB60EE82EFED73D23
:10777B002EFCD73E2EFAD78ED01A0E3E6E5E0E3DE5
:10778B006E6E0EE82EFED73D2EFCD73E2EFAD7821C
:10779B00D0330E3E6EBB0E3D6EE00EE82EFED73D97
:1077AB002EFCD73E2EFAD759D14D0E3E6E190E3DFB
:1077BB006E500EE82EFED73D2EFCD73E2EFAD74D3F
:1077CB00D1660E3E6E760E3D6EC10EE82EFED73D97
:1077DB002EFCD73E2EFAD7A4D07F0E3E6ED40E3D94
:1077EB006E320EE82EFED73D2EFCD73E2EFAD73545
:1077FB00D1990E3E6E310E3D6EA20EE82EFED73D98
:10780B002EFCD73E2EFAD746D0B20E3E6E8F0E3DD3
:10781B006E130EE82EFED73D2EFCD73E2EFAD780E8
:10782B00D0CB0E3E6EEC0E3D6E840EE82EFED73D99
:10783B002EFCD73E2EFAD72ED0E50E3E6E490E3DCE
:10784B006EF50EE82EFED73D2EFCD73E2EFAD768EE
:10785B00D0FE0E3E6EA70E3D6E660EE82EFED73D99
:10786B002EFCD73E2EFAD7F9D0FE0E3E6EA70E3D5C
:10787B006E660EE82EFED73D2EFCD73E2EFAD71A9B
:10788B000E3E6E5E0E3D6E6E0EE82EFED73D2EFC4E
:10789B00D73E2EFAD700D0E1D0FE0E3E6EA70E3D9E
:1078AB006E660EE82EFED73D2EFCD73E2EFAD73352
:1078BB000E3E6EBB0E3D6EE00EE82EFED73D2EFC4F
:1078CB00D73E2EFAD7CAD0FE0E3E6EA70E3D6E6681
:1078DB000EE82EFED73D2EFCD73E2EFAD74D0E3E90
:1078EB006E190E3D6E500EE82EFED73D2EFCD73E88
:1078FB002EFAD7B3D0FE0E3E6EA70E3D6E660EE887
:10790B002EFED73D2EFCD73E2EFAD7660E3E6E7658
:10791B000E3D6EC10EE82EFED73D2EFCD73E2EFA45
:10792B00D700F09BD0FE0E3E6EA70E3D6E660EE8A6
:10793B002EFED73D2EFCD73E2EFAD77F0E3E6ED4B1
:10794B000E3D6E320EE82EFED73D2EFCD73E2EFAA4
:10795B00D784D04AC03DF04BC03EF03E50000AD811
:10796B00B42ED0030AD8B42ED0040AD8B430D00C1D
:10797B000AD8B432D0040AD8B434D01C0AD8B436DE
:10798B00D0040AD8B438D00C0AD8B43AD0040AD8E8
:10799B00B43CD03C0AD8B43ED0040AD8B440D00D85
:1079AB000AD8B442D0040AD8B444D01C0AD8B4467E
:1079BB00D0040AD8B448D00C0AD8B44AD0D1D63D9A
:1079CB0050000ACED63D50E80AD8B4D6D6C9D63D1B
:1079DB0050D00AD8B4DDD6C4D63D50B80AD8B4E4DA
:1079EB00D6BFD63D50A00AD8B4EBD6BAD63D5088F8
:1079FB000AD8B4F2D6B5D63D50700AD8B4F9D6B081
:107A0B00D63D50580AD8B400D7ABD63D50400AD813
:107A1B00B407D7A6D63D50280AD8B40ED7A1D63D69
:107A2B0050100AD8B415D79CD63D50F80AD8B41CC0
:107A3B00D797D63D50E00AD8B42FD792D63D50C831
:107A4B000AD8B441D78DD63D50B00AD8B453D78895
:107A5B00D63D50980AD8B466D783D682821A0E3E8A
:107A6B006E5E0E3D6E6E0EE82EFED73D2EFCD73EA3
:107A7B002EFAD700D0B7EC35F04EC036F01200829C
:107A8B00A002D0010E01D0000E356E020E446E45E1
:107A9B000E436EAA0EE82EFED7432EFCD7442EFAC9
:107AAB00D73550D8A4A4D25504D8A4A1D2020E44E1
:107ABB006E450E436EAA0EE82EFED7432EFCD7441E
:107ACB002EFAD780A802D0010E01D0000E346E35ED
:107ADB0050D8A48DD25504D8A48AD23404D8A48704
:107AEB00D2000E386E040E376E66EC30F0436E43E8
:107AFB0050486E496A48C037F049C038F0030E3A17
:107B0B006EE80E396E8FEC30F037C048F038C04954
:107B1B00F0EDD01A0E446E5E0E436E6E0EE82EFE26
:107B2B00D7432EFCD7442EFAD782D0330E446EBBEC
:107B3B000E436EE00EE82EFED7432EFCD7442EFAF2
:107B4B00D758D14D0E446E190E436E500EE82EFED3
:107B5B00D7432EFCD7442EFAD74CD1660E446E7603
:107B6B000E436EC10EE82EFED7432EFCD7442EFAE1
:107B7B00D7A4D07F0E446ED40E436E320EE82EFE89
:107B8B00D7432EFCD7442EFAD734D1990E446E31FD
:107B9B000E436EA20EE82EFED7432EFCD7442EFAD0
:107BAB00D746D0B20E446E8F0E436E130EE82EFEE8
:107BBB00D7432EFCD7442EFAD780D0CB0E446EEC95
:107BCB000E436E840EE82EFED7432EFCD7442EFABE
:107BDB00D72ED0E50E446E490E436EF50EE82EFE01
:107BEB00D7432EFCD7442EFAD768D0FE0E446EA78F
:107BFB000E436E660EE82EFED7432EFCD7442EFAAC
:107C0B00D7F8D0FE0E446EA70E436E660EE82EFE1E
:107C1B00D7432EFCD7442EFAD71A0E446E5E0E4372
:107C2B006E6E0EE82EFED7432EFCD7442EFAD700ED
:107C3B00D0E0D0FE0E446EA70E436E660EE82EFE0D
:107C4B00D7432EFCD7442EFAD7330E446EBB0E43CC
:107C5B006EE00EE82EFED7432EFCD7442EFAD7C982
:107C6B00D0FE0E446EA70E436E660EE82EFED74373
:107C7B002EFCD7442EFAD74D0E446E190E436E5080
:107C8B000EE82EFED7432EFCD7442EFAD7B2D0FEE9
:107C9B000E446EA70E436E660EE82EFED7432EFCE7
:107CAB00D7442EFAD7660E446E760E436EC10EE89D
:107CBB002EFED7432EFCD7442EFAD700F09AD0FED7
:107CCB000E446EA70E436E660EE82EFED7432EFCB7
:107CDB00D7442EFAD77F0E446ED40E436E320EE885
:107CEB002EFED7432EFCD7442EFAD783D048C04361
:107CFB00F049C044F04450000AD8B42ED0030AD83F
:107D0B00B42ED0040AD8B430D00C0AD8B432D00474
:107D1B000AD8B434D01C0AD8B436D0040AD8B43834
:107D2B00D00C0AD8B43AD0040AD8B43CD03C0AD808
:107D3B00B43ED0040AD8B440D00D0AD8B442D00413
:107D4B000AD8B444D01C0AD8B446D0040AD8B448D4
:107D5B00D00C0AD8B44AD04DD04350000A4AD04375
:107D6B0050E80AD8B4D6D645D04350D00AD8B4DDA3
:107D7B00D640D04350B80AD8B4E4D63BD04350A039
:107D8B000AD8B4EBD636D04350880AD8B4F2D631E1
:107D9B00D04350700AD8B4F9D62CD04350580AD8D7
:107DAB00B400D727D04350400AD8B407D722D043CA
:107DBB0050280AD8B40ED71DD04350100AD8B4158A
:107DCB00D718D04350F80AD8B41CD713D04350E07F
:107DDB000AD8B42FD70ED04350C80AD8B441D7090C
:107DEB00D04350B00AD8B453D704D04350980AD8D4
:107DFB00B466D7010E2D6E828480A802D0010E01CD
:107E0B00D0000E346E010E1D26000E1E221F2220E6
:107E1B0022B6EC30F03450D8A43ED0070E446E5846
:107E2B000E436E5A0EE82EFED7432EFCD7442EFA85
:107E3B00D780A802D0010E01D0000E346E3450D87A
:107E4B00A42AD0000E2D6E000E386E010E376E6612
:107E5B00EC30F0436E4350456E466A45044610D8ED
:107E6B00A41AD04D0E446E190E436E500EE82EFE22
:107E7B00D7432EFCD7442EFAD7829482820D0E4420
:107E8B006EAF0E436EB60EE82EFED7432EFCD744D4
:107E9B002EFAD700D08292900E1D1811E1D00E1E33
:107EAB00180EE1030E1F182010D8A409D0000E1DC8
:107EBB006E000E1E6E000E1F6E000E206E1AD02A64
:107ECB00BE15D00D0E295C020E2A58D8A00FD02B50
:107EDB004A2C2A2CBE0BD0A10E2B5C0F0E2C58D883
:107EEB00A005D0000E2C6E000E2B6E03D02D04D8E7
:107EFB00B482D78294000E1D6E000E1E6E000E1FF4
:107F0B006E000E206E000E2C6E000E2B6E80A602E5
:107F1B00D0010E01D0000E4E6E000E386E030E37E0
:107F2B006E66EC30F0436E43504F6E506A516A529E
:107F3B006A4FC037F050C038F051C039F052C03AD8
:107F4B00F0200E3B6EA10E3C6E070E3D6E000E3EFA
:107F5B006EE2EC33F037C04FF038C050F039C051FF
:107F6B00F03AC052F0010E1926000E1A221B221CE9
:107F7B002280A602D0010E01D0000E4E6E4F50197A
:107F8B00182BE150501A1828E151501B1825E152BB
:107F9B00501C18D8A421D080A802D0010E01D0000B
:107FAB000E346E3450D8A41BD082820D0E446EAFAB
:107FBB000E436EB60EE82EFED7432EFCD7442EFA98
:107FCB00D700D0B7EC35F0000E196E000E1A6E000C
:107FDB000E1B6E000E1C6E03D04E04D8B4C3D7001C
:107FEB000E196E000E1A6E000E1B6E000E1C6E35F7
:057FFB00C055F012006A
:020000040020DA
:08000000FFFFFFFFFFFFFFFF00
:020000040030CA
:0E000000000C191EFF8381FF0FC00FE00F40A0
:00000001FF
