:020000040000FA
:04000000EEEF3EF0F1
:107DC300010F0EC16E9282E70E936E819681982EFB
:107DD300EC3FF063EC3FF0FBD7C30EF66E7D0EF77E
:107DE3006E000EF86E0900F5CF10F000EE01F00CF6
:107DF3000EEE6AE806FDE10001E2EF3EF0818681C6
:107E0300AE02D0010E01D0000E0A6E010E0526004F
:107E13000E062207220822500E051811E1F80E065D
:107E2300180EE10C0E07180810D8A409D0000E058F
:107E33006E000E066E000E076E000E086E03D00A6B
:107E430004D8B4DCD78196000E056E000E066E00D2
:107E53000E076E000E086E120080A202D0010E0102
:107E6300D0000E0F6E020E0E6E450E0D6EAA0EE8BA
:107E73002EFED70D2EFCD70E2EFAD70F04D8A41E34
:107E8300D00C50D8A41BD0020E0E6E450E0D6EAA58
:107E93000EE82EFED70D2EFCD70E2EFAD781AC029C
:107EA300D0010E01D0000E096E0F04D8A407D00C28
:107EB30050D8A404D00950D8B400EC3FF00FC00C44
:107EC300F0120081A402D0010E01D0000E0B6E024D
:107ED3000E0E6E450E0D6EAA0EE82EFED70D2EFC6D
:107EE300D70E2EFAD70B50D8A486D01004D8A4836B
:107EF300D0020E0E6E450E0D6EAA0EE82EFED70DA5
:107F03002EFCD70E2EFAD781AC02D0010E01D00081
:107F13000E096E0B50D8A46FD01004D8A46CD009EE
:107F230004D8A469D0818881AC02D0010E01D000AD
:107F33000E096E010E0526000E06220722082250A6
:107F43000E051811E1F80E06180EE10C0E071808BD
:107F530010D8A409D0000E056E000E066E000E07A1
:107F63006E000E086E03D00904D8B4DCD7819800E4
:107F73000E056E000E066E000E076E000E086E8074
:107F8300A202D0010E01D0000E0F6E010E012600D9
:107F93000E02220322042280A202D0010E01D0008D
:107FA3000E0F6E400E01181CE1420E021819E10F6C
:107FB3000E03180410D8A414D081AC02D0010E0112
:107FC300D0000E096E0950D8A40ED000EC3FF0008B
:107FD3000E016E000E026E000E036E000E046E03A1
:107FE300D00F04D8B4D2D7000E016E000E026E007B
:0D7FF3000E036E000E046E0BC010F01200A5
:020000040020DA
:08000000FFFFFFFFFFFFFFFF00
:020000040030CA
:0E000000000C191EFF8381FF0FC00FE00F40A0
:00000001FF
