:020000040000FA
:04000000F9EF33F0F1
:10611F0001000000010101829E829C110E816E120E
:10612F000037C0A9FFA69EA69CA680A8501200AA61
:10613F000E816E828E080EE82EFED700F0829EAB87
:10614F000E816E828C080EE82EFED700F0829C1214
:10615F000037C0A9FF39C0A8FFA69EA69CA684F24F
:10616F009E550EA76EAA0EA76EA682F28EA6B2FE3F
:10617F00D7120037503902F3CF3BF0F4CF3CF03752
:10618F00503A02F3503C2638503902F3503C263B2C
:10619F00C037F03CC038F01200C282C2B2FED7C482
:1061AF00CF23F0246A2350246E236AC35023242361
:1061BF006E000E2420246E23C037F024C038F01256
:1061CF0000D4EC30F037C029F038C02AF02ABE09CD
:1061DF00D0210E295C020E2A58D8A003D09FEC3094
:1061EF00F0120093EC30F012008168829E0B0E3794
:1061FF006E620EE82EFED7372EFCD700D0829E2877
:10620F000E816E828C0B0E376E620EE82EFED73724
:10621F002EFCD700D0829C12008168829E0B0E3715
:10622F006E620EE82EFED7372EFCD700D0829E7DF1
:10623F000E816E828C0B0E376E620EE82EFED737F4
:10624F002EFCD700D0829C1200DF0E816E828E0B47
:10625F000E376E620EE82EFED7372EFCD700D08297
:10626F009E8168829C0B0E376E620EE82EFED7372A
:10627F002EFCD700D0829C12008168829E0B0E37B5
:10628F006E620EE82EFED7372EFCD700D0829EA46A
:10629F000E816E828C0B0E376E620EE82EFED73794
:1062AF002EFCD700D0829C12008168829E0B0E3785
:1062BF006E620EE82EFED7372EFCD700D0829E647A
:1062CF000E816E828C0B0E376E620EE82EFED73764
:1062DF002EFCD700D0829C12008168829E0B0E3755
:1062EF006E620EE82EFED7372EFCD700D0829E713D
:1062FF000E816E828C0B0E376E620EE82EFED73734
:10630F002EFCD700D0829C12008168829E0B0E3724
:10631F006E620EE82EFED7372EFCD700D0829E621B
:10632F000E816E828C0B0E376E620EE82EFED73703
:10633F002EFCD700D0829C12008168829E0B0E37F4
:10634F006E620EE82EFED7372EFCD700D0829E222B
:10635F000E816E828C0B0E376E620EE82EFED737D3
:10636F002EFCD700D0829C12008168829E0B0E37C4
:10637F006E620EE82EFED7372EFCD700D0829E7CA1
:10638F000E816E828C0B0E376E620EE82EFED737A3
:10639F002EFCD700D0829C12008168829E0B0E3794
:1063AF006E620EE82EFED7372EFCD700D0829E20CD
:1063BF000E816E828C0B0E376E620EE82EFED73773
:1063CF002EFCD700D0829C12008168829E0B0E3764
:1063DF006E620EE82EFED7372EFCD700D0829E605D
:1063EF000E816E828C0B0E376E620EE82EFED73743
:1063FF002EFCD700D0829C1200B00E816E828E0BC5
:10640F000E376E620EE82EFED7372EFCD700D082E5
:10641F009E7D0E816E828C0B0E376E620EE82EFE05
:10642F00D7372EFCD700D0829C1200B00E816E821F
:10643F008E0B0E376E620EE82EFED7372EFCD7006E
:10644F00D0829EA40E816E828C0B0E376E620EE888
:10645F002EFED7372EFCD700D0829C1200B00E81B3
:10646F006E828E0B0E376E620EE82EFED7372EFC25
:10647F00D700D0829E640E816E828C0B0E376E62B7
:10648F000EE82EFED7372EFCD700D0829C1200B01C
:10649F000E816E828E0B0E376E620EE82EFED73790
:1064AF002EFCD700D0829E710E816E828C0B0E3720
:1064BF006E620EE82EFED7372EFCD700D0829C12CC
:1064CF0000DF0E816E828E0B0E376E620EE82EFE8F
:1064DF00D7372EFCD700D0829EDF0E816E828C0BB9
:1064EF000E376E620EE82EFED7372EFCD700D08205
:1064FF009C12007D0E816E828E0B0E376E620EE83F
:10650F002EFED7372EFCD700D0829E280E816E82AA
:10651F008C0B0E376E620EE82EFED7372EFCD7008F
:10652F00D0829C12007D0E816E828E0B0E376E62B2
:10653F000EE82EFED7372EFCD700D0829E7D0E811F
:10654F006E828C0B0E376E620EE82EFED7372EFC46
:10655F00D700D0829C12007D0E816E828E0B0E377B
:10656F006E620EE82EFED7372EFCD700D0829EA487
:10657F000E816E828C0B0E376E620EE82EFED737B1
:10658F002EFCD700D0829C12007D0E816E828E0B66
:10659F000E376E620EE82EFED7372EFCD700D08254
:1065AF009E640E816E828C0B0E376E620EE82EFE8D
:1065BF00D7372EFCD700D0829C12007D0E816E82C1
:1065CF008E0B0E376E620EE82EFED7372EFCD700DD
:1065DF00D0829E710E816E828C0B0E376E620EE82A
:1065EF002EFED7372EFCD700D0829C12007D0E8155
:1065FF006E828E0B0E376E620EE82EFED7372EFC94
:10660F00D700D0829E620E816E828C0B0E376E6227
:10661F000EE82EFED7372EFCD700D0829C12007DBD
:10662F000E816E828E0B0E376E620EE82EFED737FE
:10663F002EFCD700D0829E220E816E828C0B0E37DD
:10664F006E620EE82EFED7372EFCD700D0829C123A
:10665F00007D0E816E828E0B0E376E620EE82EFE5F
:10666F00D7372EFCD700D0829E200E816E828C0BE6
:10667F000E376E620EE82EFED7372EFCD700D08273
:10668F009C1200A40E816E828E0B0E376E620EE886
:10669F002EFED7372EFCD700D0829E280E816E8219
:1066AF008C0B0E376E620EE82EFED7372EFCD700FE
:1066BF00D0829C1200A40E816E828E0B0E376E62FA
:1066CF000EE82EFED7372EFCD700D0829EA40E8167
:1066DF006E828C0B0E376E620EE82EFED7372EFCB5
:1066EF00D700D0829C1200A40E816E828E0B0E37C3
:1066FF006E620EE82EFED7372EFCD700D0829E7129
:10670F000E816E828C0B0E376E620EE82EFED7371F
:10671F002EFCD700D0829C1200A40E816E828E0BAD
:10672F000E376E620EE82EFED7372EFCD700D082C2
:10673F009E220E816E828C0B0E376E620EE82EFE3D
:10674F00D7372EFCD700D0829C1200A40E816E8208
:10675F008E0B0E376E620EE82EFED7372EFCD7004B
:10676F00D0829E200E816E828C0B0E376E620EE8E9
:10677F002EFED7372EFCD700D0829C1200640E81DC
:10678F006E828E0B0E376E620EE82EFED7372EFC02
:10679F00D700D0829E280E816E828C0B0E376E62D0
:1067AF000EE82EFED7372EFCD700D0829C120001A8
:1067BF000E1126000E122213221422580E11181039
:1067CF00E11B0E121813101410D8A41200000E2F74
:1067DF006E000E116E000E126E000E136E000E1470
:1067EF006E12001F0EF66E610EF76E000EF86E0041
:1067FF00EE4FF010EE07F00900F5CFEEFFE550E198
:10680F0050FAE100EE01F0360EEE6AE806FDE10007
:10681F000EF86E00017BEF34F0000E3F6E000E405D
:10682F006E000E416E000E426E37A008D03B503FF7
:10683F00263C5040223D5041223E504222D8903BB0
:10684F00363C363D363E36D8903A323932383237CA
:10685F00323750381039103A10D8A4E6D73FC03726
:10686F00F040C038F041C039F042C03AF012008019
:10687F00A602D0010E01D0000E4E6E80AA02D001EA
:10688F000E01D0000E4D6E4E04D8A406D04D50D838
:10689F00A403D08168828E1200254A262A26BE06BE
:1068AF00D0265007E1020E255CD8B003D081688254
:1068BF008E120026BE11D0265004E1020E255CD8A0
:1068CF00A00BD026BE06D0265007E1040E255CD8BB
:1068DF00B003D08168829E12008168829E000E26CE
:1068EF006E000E256E12000E0EC16E92809286946F
:1068FF008094929494949C949E9288928A9282927D
:10690F0084C30EC216F80EC016C08EC280000E933E
:10691F006E8168829E829C82928294000E386E01F4
:10692F000E376E98EC30F00009D8B402D0010E018A
:10693F00D0000E4C6E000E386E020E376E98EC3093
:10694F00F0476E47504A6E4B6A000E386E040E3792
:10695F006E98EC30F0476E4750486E496A3FEC3402
:10696F00F06DEC35F06DEC3BF059EC3DF0F7D79353
:10697F00EC30F00D0E396EAF0E386EB60EE82EFEFF
:10698F00D7382EFCD7392EFAD700D02CEC31F001A6
:10699F000E1526000E16221722182218BEF6D7182B
:1069AF00501710161004E1FA0E155CD8A0EED700A0
:1069BF000E156E000E166E000E176E000E186E6816
:1069CF00EC32F0010E1526000E162217221822188F
:1069DF00BEF6D718501710161004E1FA0E155CD832
:1069EF00A0EED7000E156E000E166E000E176E007D
:1069FF000E186E000E2F6E1200000E1D6E000E1E72
:106A0F006E000E1F6E000E206E1A0E3A6E5E0E395D
:106A1F006E6E0EE82EFED7392EFCD73A2EFAD7001F
:106A2F00D0828280AA02D0010E01D0000E4D6E01DD
:106A3F000E1D26000E1E221F222022D4EC30F0370E
:106A4F00C029F038C02AF0E8EC30F0900E1D181174
:106A5F00E1D00E1E180EE1030E1F182010D8A40946
:106A6F00D0000E1D6E000E1E6E000E1F6E000E204B
:106A7F006E1AD02ABE15D0210E295C020E2A58D8C4
:106A8F00A00FD02B4A2C2A2CBE0BD0D10E2B5C077B
:106A9F000E2C58D8A005D0000E2C6E000E2B6E03B6
:106AAF00D04D04D8B4BDD78292000E1D6E000E1EBD
:106ABF006E000E1F6E000E206E000E2C6E000E2B41
:106ACF006E000E316E000E306E120080A202D001E9
:106ADF000E01D0000E336E070E3E6E7D0EE82EFEB9
:106AEF00D73E2EFCD700F03350D8A422D05404D870
:106AFF00A41FD0010E316E3104D8A41AD03004D89F
:106B0F00A417D0010E2F6E000E316E000E306E00E6
:106B1F000E286E000E276E080E3F6E9D0E3E6E06FF
:106B2F000EE82EFED73E2EFCD73F2EFAD752EC366C
:106B3F00F033C054F080A402D0010E01D0000E3209
:106B4F006E070E3E6E7D0EE82EFED73E2EFCD70052
:106B5F00F03250D8A422D05304D8A41FD0010E3045
:106B6F006E3004D8A41AD03104D8A417D0010E2F38
:106B7F006E000E306E000E316E000E286E000E2766
:106B8F006E080E3F6E9D0E3E6E060EE82EFED73E31
:106B9F002EFCD73F2EFAD752EC36F032C053F012FC
:106BAF00000BD0FCEC30F018D014EC31F015D00005
:106BBF000E286E000E276E10D027C03AF028C03B6B
:106BCF00F03B50000AD8A4F3D73A50000AD8B4E9E2
:106BDF00D7010AD8B4E9D7EBD780A402D0010E01B0
:106BEF00D0000E326E3250D8A40DD05304D8A40A60
:106BFF00D0274A282A000E116E000E126E000E13B7
:106C0F006E000E146E32C053F080A202D0010E013E
:106C1F00D0000E336E000E116E000E126E000E13AA
:106C2F006E000E146E3350D8A42DD05404D8B41A5D
:106C3F00D029D0000E386E010E376E000E396EB0AF
:106C4F00EC30F0BFEC34F01ED0000E386E010E3772
:106C5F006E010E396EB0EC30F0F4D7000E286E00D6
:106C6F000E276E10D027C03AF028C03BF03B5000E3
:106C7F000AD8A4F3D73A50000AD8B4DBD7010AD800
:106C8F00B4E3D7EBD733C054F0DFEC33F02F04D895
:106C9F00A4120092D711D004EC32F024D01DEC32A4
:106CAF00F021D036EC32F01ED04FEC32F01BD0007A
:106CBF000E286E000E276E16D027C03CF028C03D60
:106CCF00F03D50000AD8A4F3D73C50000AD8B4E3E3
:106CDF00D7010AD8B4E3D7030AD8B4E3D7010AD847
:106CEF00B4E3D7E5D780A402D0010E01D0000E3255
:106CFF006E3250D8A40DD05304D8A40AD0274A28F6
:106D0F002A000E116E000E126E000E136E000E147E
:106D1F006E32C053F080A202D0010E01D0000E33AC
:106D2F006E3350D8A47AD05404D8A477D0000E1163
:106D3F006E000E126E000E136E000E146E58D00001
:106D4F000E286E000E276E080E3D6E9D0E3C6E06D1
:106D5F000EE82EFED73C2EFCD73D2EFAD7D8EC35B9
:106D6F00F05CD0000E286E000E276E080E3D6E9D53
:106D7F000E3C6E060EE82EFED73C2EFCD73D2EFAAB
:106D8F00D781EC38F04AD0000E286E010E276E081E
:106D9F000E3D6E9D0E3C6E060EE82EFED73C2EFC71
:106DAF00D73D2EFAD71DEC37F038D0000E286E00E5
:106DBF000E276E080E3D6E9D0E3C6E060EE82EFEE3
:106DCF00D73C2EFCD73D2EFAD7F7EC39F026D00062
:106DDF000E286E000E276E080E3D6E9D0E3C6E0641
:106DEF000EE82EFED73C2EFCD73D2EFAD716D02715
:106DFF00C03CF028C03DF03D50000AD8A4E8D73C75
:106E0F0050000AD8B49CD7010AD8B4ABD7030AD81C
:106E1F00B4BAD7010AD8B4C9D7DAD733C054F0DF20
:106E2F00EC33F02F04D8A4120047D732D044EC3102
:106E3F00F066D074EC31F063D0A4EC31F060D0D4B4
:106E4F00EC31F05DD081EC32F05AD0B3EC32F05728
:106E5F00D0E5EC32F054D017EC33F051D030EC33A6
:106E6F00F04ED049EC33F04BD062EC33F048D07B8E
:106E7F00EC33F045D094EC33F042D0ADEC33F03F2F
:106E8F00D0C6EC33F03CD0000E286E010E276E37C3
:106E9F00D027C03AF028C03BF03B50000AD8A4F3EB
:106EAF00D73A50010AD8B4C2D7030AD8B4C2D7010F
:106EBF000AD8B4C2D7070AD8B4C2D7010AD8B4C205
:106ECF00D7030AD8B4C2D7010AD8B4C2D70F0AD889
:106EDF00B4C2D7010AD8B4C2D7030AD8B4C2D701F3
:106EEF000AD8B4C2D7070AD8B4C2D7010AD8B4C2D5
:106EFF00D7030AD8B4C2D7010AD8B4C2D7C4D7802F
:106F0F00A402D0010E01D0000E326E3250D8A40D63
:106F1F00D05304D8A40AD0274A282A000E116E0095
:106F2F000E126E000E136E000E146E32C053F080F0
:106F3F00A202D0010E01D0000E336E000E116E00B2
:106F4F000E126E000E136E000E146E3350D8A4C9BD
:106F5F00D05404D8B48FD0C5D0000E386E030E377E
:106F6F006E010E396EB0EC30F0BFEC34F0BAD000D9
:106F7F000E386E030E376E020E396EB0EC30F0F431
:106F8F00D7000E386E030E376E030E396EB0EC302D
:106F9F00F0EBD7000E386E030E376E040E396EB05D
:106FAF00EC30F0E2D7000E386E030E376E050E3957
:106FBF006EB0EC30F0D9D7000E386E030E376E0678
:106FCF000E396EB0EC30F0D0D7000E386E030E379E
:106FDF006E070E396EB0EC30F0C7D7000E386E0367
:106FEF000E376E080E396EB0EC30F0BED7000E388B
:106FFF006E030E376E090E396EB0EC30F0B5D70058
:10700F000E386E030E376E0A0E396EB0EC30F0ACE0
:10701F00D7000E386E030E376E0B0E396EB0EC3094
:10702F00F0A3D7000E386E030E376E0C0E396EB00C
:10703F00EC30F09AD7000E386E030E376E0D0E3906
:10704F006EB0EC30F091D7000E386E030E376E0E27
:10705F000E396EB0EC30F088D7000E386E030E3755
:10706F006E0F0E396EB0EC30F07FD7000E286E0128
:10707F000E276E37D027C03AF028C03BF03B5000A8
:10708F000AD8A4F3D73A50010AD8B466D7030AD85E
:10709F00B46ED7010AD8B474D7070AD8B47AD70117
:1070AF000AD8B480D7030AD8B486D7010AD8B48CCB
:1070BF00D70F0AD8B492D7010AD8B498D7030AD8F1
:1070CF00B49ED7010AD8B4A4D7070AD8B4AAD70157
:1070DF000AD8B4B0D7030AD8B4B6D7010AD8B4BC0B
:1070EF00D7C4D733C054F0DFEC33F02F04D8A41239
:1070FF0000CFD635D0FCEC30F06CD014EC31F06909
:10710F00D044EC31F066D05CEC31F063D074EC31EC
:10711F00F060D08CEC31F05DD0A4EC31F05AD0BCE3
:10712F00EC31F057D0D4EC31F054D0ECEC31F051CD
:10713F00D081EC32F04ED09AEC32F04BD0B3EC322F
:10714F00F048D0CCEC32F045D0E5EC32F042D0FE36
:10715F00EC32F03FD0000E286E000E276E3AD0278B
:10716F00C03AF028C03BF03B50000AD8A4F3D73AFE
:10717F0050000AD8B4BFD7010AD8B4BFD7030AD872
:10718F00B4BFD7010AD8B4BFD7070AD8B4BFD70145
:10719F000AD8B4BFD7030AD8B4BFD7010AD8B4BF2F
:1071AF00D70F0AD8B4BFD7010AD8B4BFD7030AD8AC
:1071BF00B4BFD7010AD8B4BFD7070AD8B4BFD70115
:1071CF000AD8B4BFD7030AD8B4BFD7010AD8B4BFFF
:1071DF00D7C1D780A402D0010E01D0000E326E327B
:1071EF0050D8A40DD05304D8A40AD0274A282A0077
:1071FF000E116E000E126E000E136E000E146E3214
:10720F00C053F080A202D0010E01D0000E336E00E9
:10721F000E116E000E126E000E136E000E146E33F2
:10722F0050D8A4D5D05404D8B498D0D1D0000E38AB
:10723F006E020E376E000E396EB0EC30F0BFEC34CC
:10724F00F0C6D0000E386E020E376E010E396EB0DA
:10725F00EC30F0F4D7000E386E020E376E020E3996
:10726F006EB0EC30F0EBD7000E386E020E376E03B7
:10727F000E396EB0EC30F0E2D7000E386E020E37DA
:10728F006E040E396EB0EC30F0D9D7000E386E02A6
:10729F000E376E050E396EB0EC30F0D0D7000E38C9
:1072AF006E020E376E060E396EB0EC30F0C7D70097
:1072BF000E386E020E376E070E396EB0EC30F0BE20
:1072CF00D7000E386E020E376E080E396EB0EC30E6
:1072DF00F0B5D7000E386E020E376E090E396EB04C
:1072EF00EC30F0ACD7000E386E020E376E0A0E3946
:1072FF006EB0EC30F0A3D7000E386E020E376E0B67
:10730F000E396EB0EC30F09AD7000E386E020E3791
:10731F006E0C0E396EB0EC30F091D7000E386E0255
:10732F000E376E0D0E396EB0EC30F088D7000E3878
:10733F006E020E376E0E0E396EB0EC30F07FD70046
:10734F000E386E020E376E0F0E396EB0EC30F076CF
:10735F00D7000E286E000E276E3AD027C03AF028BD
:10736F00C03BF03B50000AD8A4F3D73A50000AD8DC
:10737F00B45DD7010AD8B465D7030AD8B46BD70167
:10738F000AD8B471D7070AD8B477D7010AD8B47D11
:10739F00D7030AD8B483D7010AD8B489D70F0AD82C
:1073AF00B48FD7010AD8B495D7030AD8B49BD701A5
:1073BF000AD8B4A1D7070AD8B4A7D7010AD8B4AD51
:1073CF00D7030AD8B4B3D7010AD8B4B9D7C1D733C2
:1073DF00C054F0DFEC33F02F04D8A41200C0D63520
:1073EF00D0FCEC30F06CD014EC31F069D044EC31BF
:1073FF00F066D05CEC31F063D074EC31F060D08C7F
:10740F00EC31F05DD0A4EC31F05AD0BCEC31F05738
:10741F00D0D4EC31F054D0ECEC31F051D081EC32CF
:10742F00F04ED09AEC32F04BD0B3EC32F048D0CCD7
:10743F00EC32F045D0E5EC32F042D0FEEC32F03FCA
:10744F00D0000E286E000E276E3AD027C03AF028D3
:10745F00C03BF03B50000AD8A4F3D73A50000AD8EB
:10746F00B4BFD7010AD8B4BFD7030AD8B4BFD70166
:10747F000AD8B4BFD7070AD8B4BFD7010AD8B4BF48
:10748F00D7030AD8B4BFD7010AD8B4BFD70F0AD8C9
:10749F00B4BFD7010AD8B4BFD7030AD8B4BFD70136
:1074AF000AD8B4BFD7070AD8B4BFD7010AD8B4BF18
:1074BF00D7030AD8B4BFD7010AD8B4BFD7C1D78072
:1074CF00A402D0010E01D0000E326E3250D8A40D9E
:1074DF00D05304D8A40AD0274A282A000E116E00D0
:1074EF000E126E000E136E000E146E32C053F0802B
:1074FF00A202D0010E01D0000E336E000E116E00ED
:10750F000E126E000E136E000E146E3350D8A4D5EB
:10751F00D05404D8B498D0D1D0000E386E040E37A2
:10752F006E000E396EB0EC30F0BFEC34F0C6D00008
:10753F000E386E040E376E010E396EB0EC30F0F46B
:10754F00D7000E386E040E376E020E396EB0EC3067
:10755F00F0EBD7000E386E040E376E030E396EB097
:10756F00EC30F0E2D7000E386E040E376E040E3991
:10757F006EB0EC30F0D9D7000E386E040E376E05B2
:10758F000E396EB0EC30F0D0D7000E386E040E37D7
:10759F006E060E396EB0EC30F0C7D7000E386E04A1
:1075AF000E376E070E396EB0EC30F0BED7000E38C6
:1075BF006E040E376E080E396EB0EC30F0B5D70092
:1075CF000E386E040E376E090E396EB0EC30F0AC1B
:1075DF00D7000E386E040E376E0A0E396EB0EC30CF
:1075EF00F0A3D7000E386E040E376E0B0E396EB047
:1075FF00EC30F09AD7000E386E040E376E0C0E3941
:10760F006EB0EC30F091D7000E386E040E376E0D61
:10761F000E396EB0EC30F088D7000E386E040E378E
:10762F006E0E0E396EB0EC30F07FD7000E386E0450
:10763F000E376E0F0E396EB0EC30F076D7000E2885
:10764F006E000E276E3AD027C03AF028C03BF03BB1
:10765F0050000AD8A4F3D73A50000AD8B45DD70126
:10766F000AD8B465D7030AD8B46BD7010AD8B47156
:10767F00D7070AD8B477D7010AD8B47DD7030AD869
:10768F00B483D7010AD8B489D70F0AD8B48FD701DA
:10769F000AD8B495D7030AD8B49BD7010AD8B4A196
:1076AF00D7070AD8B4A7D7010AD8B4ADD7030AD8D9
:1076BF00B4B3D7010AD8B4B9D7C1D733C054F0DFA8
:1076CF00EC33F02F04D8A41200C0D680A602D0014C
:1076DF000E01D0000E4E6E020E3E6E450E3D6EAA8E
:1076EF000EE82EFED73D2EFCD73E2EFAD74E04D8ED
:1076FF00A4D5D13650D8A4D2D1020E3E6E450E3D40
:10770F006EAA0EE82EFED73D2EFCD73E2EFAD7805E
:10771F00A802D0010E01D0000E346E4E04D8A4BEC4
:10772F00D13650D8A4BBD13450D8A4B8D1020E3E14
:10773F006E450E3D6EAA0EE82EFED73D2EFCD73EAF
:10774F002EFAD7000E1D6E000E1E6E000E1F6E005D
:10775F000E206E000E386E020E376E98EC30F03D34
:10776F006E3D504A6E4B6A4AC037F04BC038F0033B
:10777F000E3A6EE80E396EC1EC30F037C04AF03871
:10778F00C04BF0F9D00D0E3E6EAF0E3D6EB60EE84B
:10779F002EFED73D2EFCD73E2EFAD78ED01A0E3E98
:1077AF006E5E0E3D6E6E0EE82EFED73D2EFCD73E62
:1077BF002EFAD782D0330E3E6EBB0E3D6EE00EE832
:1077CF002EFED73D2EFCD73E2EFAD759D14D0E3E69
:1077DF006E190E3D6E500EE82EFED73D2EFCD73E95
:1077EF002EFAD74DD1660E3E6E760E3D6EC10EE867
:1077FF002EFED73D2EFCD73E2EFAD7A4D07F0E3EBD
:10780F006ED40E3D6E320EE82EFED73D2EFCD73EC7
:10781F002EFAD735D1990E3E6E310E3D6EA20EE87F
:10782F002EFED73D2EFCD73E2EFAD746D0B20E3EB7
:10783F006E8F0E3D6E130EE82EFED73D2EFCD73EFB
:10784F002EFAD780D0CB0E3E6EEC0E3D6E840EE836
:10785F002EFED73D2EFCD73E2EFAD72ED0E50E3E6C
:10786F006E490E3D6EF50EE82EFED73D2EFCD73E2F
:10787F002EFAD768D0FE0E3E6EA70E3D6E660EE84E
:10788F002EFED73D2EFCD73E2EFAD7F9D0FE0E3E58
:10789F006EA70E3D6E660EE82EFED73D2EFCD73E30
:1078AF002EFAD71A0E3E6E5E0E3D6E6E0EE82EFE4F
:1078BF00D73D2EFCD73E2EFAD700D0E1D0FE0E3E9C
:1078CF006EA70E3D6E660EE82EFED73D2EFCD73E00
:1078DF002EFAD7330E3E6EBB0E3D6EE00EE82EFE37
:1078EF00D73D2EFCD73E2EFAD7CAD0FE0E3E6EA73E
:1078FF000E3D6E660EE82EFED73D2EFCD73E2EFABD
:10790F00D74D0E3E6E190E3D6E500EE82EFED73D32
:10791F002EFCD73E2EFAD7B3D0FE0E3E6EA70E3DED
:10792F006E660EE82EFED73D2EFCD73E2EFAD7669A
:10793F000E3E6E760E3D6EC10EE82EFED73D2EFC2E
:10794F00D73E2EFAD700F09BD0FE0E3E6EA70E3D0F
:10795F006E660EE82EFED73D2EFCD73E2EFAD77F51
:10796F000E3E6ED40E3D6E320EE82EFED73D2EFC2F
:10797F00D73E2EFAD784D04AC03DF04BC03EF03EE2
:10798F0050000AD8B42ED0030AD8B42ED0040AD887
:10799F00B430D00C0AD8B432D0040AD8B434D01CC6
:1079AF000AD8B436D0040AD8B438D00C0AD8B43AAE
:1079BF00D0040AD8B43CD03C0AD8B43ED0040AD87C
:1079CF00B440D00D0AD8B442D0040AD8B444D01C65
:1079DF000AD8B446D0040AD8B448D00C0AD8B44A4E
:1079EF00D0D1D63D50000ACED63D50E80AD8B4D6F5
:1079FF00D6C9D63D50D00AD8B4DDD6C4D63D50B87E
:107A0F000AD8B4E4D6BFD63D50A00AD8B4EBD6BA44
:107A1F00D63D50880AD8B4F2D6B5D63D50700AD8A4
:107A2F00B4F9D6B0D63D50580AD8B400D7ABD63D2E
:107A3F0050400AD8B407D7A6D63D50280AD8B40E5E
:107A4F00D7A1D63D50100AD8B415D79CD63D50F8C3
:107A5F000AD8B41CD797D63D50E00AD8B42FD79286
:107A6F00D63D50C80AD8B441D78DD63D50B00AD8AC
:107A7F00B453D788D63D50980AD8B466D783D682E8
:107A8F00821A0E3E6E5E0E3D6E6E0EE82EFED73DD6
:107A9F002EFCD73E2EFAD700D004EC35F04EC03670
:107AAF00F0120082A002D0010E01D0000E356E023E
:107ABF000E446E450E436EAA0EE82EFED7432EFCE3
:107ACF00D7442EFAD73550D8A490D25504D8A48DC8
:107ADF00D2020E446E450E436EAA0EE82EFED74319
:107AEF002EFCD7442EFAD780A802D0010E01D00069
:107AFF000E346E3550D8A479D25504D8A476D2342A
:107B0F0004D8A473D2000E386E040E376E98EC3082
:107B1F00F0436E4350486E496A48C037F049C03849
:107B2F00F0030E3A6EE80E396EC1EC30F037C048F4
:107B3F00F038C049F0EDD01A0E446E5E0E436E6EF3
:107B4F000EE82EFED7432EFCD7442EFAD782D03321
:107B5F000E446EBB0E436EE00EE82EFED7432EFC96
:107B6F00D7442EFAD758D14D0E446E190E436E508E
:107B7F000EE82EFED7432EFCD7442EFAD74CD166F3
:107B8F000E446E760E436EC10EE82EFED7432EFCCA
:107B9F00D7442EFAD7A4D07F0E446ED40E436E3244
:107BAF000EE82EFED7432EFCD7442EFAD734D199A8
:107BBF000E446E310E436EA20EE82EFED7432EFCFE
:107BCF00D7442EFAD746D0B20E446E8F0E436E13A3
:107BDF000EE82EFED7432EFCD7442EFAD780D0CBFB
:107BEF000E446EEC0E436E840EE82EFED7432EFC31
:107BFF00D7442EFAD72ED0E50E446E490E436EF5BC
:107C0F000EE82EFED7432EFCD7442EFAD768D0FEAF
:107C1F000E446EA70E436E660EE82EFED7432EFC63
:107C2F00D7442EFAD7F8D0FE0E446EA70E436E66D9
:107C3F000EE82EFED7432EFCD7442EFAD71A0E4449
:107C4F006E5E0E436E6E0EE82EFED7432EFCD744AB
:107C5F002EFAD700D0E0D0FE0E446EA70E436E660C
:107C6F000EE82EFED7432EFCD7442EFAD7330E4400
:107C7F006EBB0E436EE00EE82EFED7432EFCD744AC
:107C8F002EFAD7C9D0FE0E446EA70E436E660EE8CD
:107C9F002EFED7432EFCD7442EFAD74D0E446E1925
:107CAF000E436E500EE82EFED7432EFCD7442EFA0D
:107CBF00D7B2D0FE0E446EA70E436E660EE82EFEB0
:107CCF00D7432EFCD7442EFAD7660E446E760E435A
:107CDF006EC10EE82EFED7432EFCD7442EFAD700E6
:107CEF00F09AD0FE0E446EA70E436E660EE82EFE7F
:107CFF00D7432EFCD7442EFAD77F0E446ED40E43B3
:107D0F006E320EE82EFED7432EFCD7442EFAD783C1
:107D1F00D048C043F049C044F04450000AD8B42EB4
:107D2F00D0030AD8B42ED0040AD8B430D00C0AD855
:107D3F00B432D0040AD8B434D01C0AD8B436D00424
:107D4F000AD8B438D00C0AD8B43AD0040AD8B43C04
:107D5F00D03C0AD8B43ED0040AD8B440D00D0AD8CB
:107D6F00B442D0040AD8B444D01C0AD8B446D004C4
:107D7F000AD8B448D00C0AD8B44AD04DD0435000DA
:107D8F000A4AD04350E80AD8B4D6D645D04350D08B
:107D9F000AD8B4DDD640D04350B80AD8B4E4D63BA5
:107DAF00D04350A00AD8B4EBD636D04350880AD867
:107DBF00B4F2D631D04350700AD8B4F9D62CD04390
:107DCF0050580AD8B400D727D04350400AD8B40728
:107DDF00D722D04350280AD8B40ED71DD043501005
:107DEF000AD8B415D718D04350F80AD8B41CD713F3
:107DFF00D04350E00AD8B42FD70ED04350C80AD87A
:107E0F00B441D709D04350B00AD8B453D704D043A4
:107E1F0050980AD8B466D7010E2D6E828480A802BE
:107E2F00D0010E01D0000E346E010E1D26000E1E65
:107E3F00221F222022E8EC30F03450D8A42AD000A0
:107E4F000E2D6E000E386E010E376E98EC30F0432B
:107E5F006E4350456E466A45044610D8A41AD04D5D
:107E6F000E446E190E436E500EE82EFED7432EFCB5
:107E7F00D7442EFAD7829482820D0E446EAF0E43F2
:107E8F006EB60EE82EFED7432EFCD7442EFAD7003F
:107E9F00D08292900E1D1811E1D00E1E180EE10324
:107EAF000E1F182010D8A409D0000E1D6E000E1E34
:107EBF006E000E1F6E000E206E1AD02ABE15D02136
:107ECF000E295C020E2A58D8A00FD02B4A2C2A2C30
:107EDF00BE0BD0D10E2B5C070E2C58D8A005D000AE
:107EEF000E2C6E000E2B6E03D02D04D8B496D782B5
:107EFF0094000E1D6E000E1E6E000E1F6E000E20E3
:107F0F006E000E2C6E000E2B6E80A602D0010E019D
:107F1F00D0000E4E6E000E386E030E376E98EC309A
:107F2F00F0436E43504F6E506A516A526A4FC037DA
:107F3F00F050C038F051C039F052C03AF0200E3B2B
:107F4F006EA10E3C6E070E3D6E000E3E6E14EC34AD
:107F5F00F037C04FF038C050F039C051F03AC0522E
:107F6F00F0010E1926000E1A221B221C2280A602D7
:107F7F00D0010E01D0000E4E6E4F5019182BE1504C
:107F8F00501A1828E151501B1825E152501C18D8CF
:107F9F00A421D080A802D0010E01D0000E346E347F
:107FAF0050D8A41BD082820D0E446EAF0E436EB616
:107FBF000EE82EFED7432EFCD7442EFAD700D0045E
:107FCF00EC35F0000E196E000E1A6E000E1B6E00CF
:107FDF000E1C6E03D04E04D8B4C3D7000E196E001A
:107FEF000E1A6E000E1B6E000E1C6E35C055F01271
:017FFF000081
:020000040020DA
:08000000FFFFFFFFFFFFFFFF00
:020000040030CA
:0E000000000C191EFF8381FF0FC00FE00F40A0
:00000001FF
