:020000040000FA
:0400000077EF37F06F
:10699900010101829E829C110E816E120036C0A9EE
:1069A900FFA69EA69CA680A85012008D0E816E821D
:1069B9008E080EE82EFED700F0829E8F0E816E8221
:1069C9008C080EE82EFED700F0829C120036C0A972
:1069D900FF38C0A8FFA69EA69CA684F29E550EA7C6
:1069E9006EAA0EA76EA682F28EA6B2FED712003646
:1069F900503802F3CF3AF0F4CF3BF036503902F376
:106A0900503B2637503802F3503B263AC036F03B0C
:106A1900C037F01200C282C2B2FED7C4CF23F0241D
:106A29006A2350246E236AC3502324236E000E2444
:106A390020246E23C036F024C037F012000FEC3545
:106A4900F036C027F037C028F028BE09D0210E271C
:106A59005C020E2858D8A003D0DAEC34F01200CE2C
:106A6900EC34F01200190E816E828E0B0E366E62B6
:106A79000EE82EFED7362EFCD700D0829EF30E816B
:106A89006E828C0B0E366E620EE82EFED7362EFC09
:106A9900D700D0829C1200190E816E828E0B0E36A1
:106AA9006E620EE82EFED7362EFCD700D0829E49A4
:106AB9000E816E828C0B0E366E620EE82EFED73674
:106AC9002EFCD700D0829C1200190E816E828E0B8B
:106AD9000E366E620EE82EFED7362EFCD700D08217
:106AE9009E610E816E828C0B0E366E620EE82EFE52
:106AF900D7362EFCD700D0829C1200190E816E82E7
:106B09008E0B0E366E620EE82EFED7362EFCD7009F
:106B1900D0829E330E816E828C0B0E366E620EE829
:106B29002EFED7362EFCD700D0829C1200110E8182
:106B39006E829E0B0E366E620EE82EFED7362EFC46
:106B4900D700D0829E810E816E828C0B0E366E62CA
:106B59000EE82EFED7362EFCD700D0829C120011EB
:106B69000E816E829E0B0E366E620EE82EFED736B1
:106B79002EFCD700D0829EF30E816E828C0B0E36CE
:106B89006E620EE82EFED7362EFCD700D0829C12FC
:106B990000FE0E816E828E0B0E366E620EE82EFEA0
:106BA900D7362EFCD700D0829E110E816E829C0BA7
:106BB9000E366E620EE82EFED7362EFCD700D08236
:106BC9009C1200FE0E816E828E0B0E366E620EE8EE
:106BD9002EFED7362EFCD700D0829EFE0E816E8205
:106BE9008C0B0E366E620EE82EFED7362EFCD700C1
:106BF900D0829C1200F30E816E828E0B0E366E626D
:106C09000EE82EFED7362EFCD700D0829E810E814B
:106C19006E828C0B0E366E620EE82EFED7362EFC77
:106C2900D700D0829C1200F30E816E828E0B0E3635
:106C39006E620EE82EFED7362EFCD700D0829EF368
:106C49000E816E828C0B0E366E620EE82EFED736E2
:106C59002EFCD700D0829C1200F30E816E828E0B1F
:106C69000E366E620EE82EFED7362EFCD700D08285
:106C79009E490E816E828C0B0E366E620EE82EFED8
:106C8900D7362EFCD700D0829C1200F30E816E827B
:106C99008E0B0E366E620EE82EFED7362EFCD7000E
:106CA900D0829E610E816E828C0B0E366E620EE86A
:106CB9002EFED7362EFCD700D0829C1200F30E810F
:106CC9006E828E0B0E366E620EE82EFED7362EFCC5
:106CD900D700D0829E330E816E828C0B0E366E6287
:106CE9000EE82EFED7362EFCD700D0829C1200F378
:106CF9000E816E828E0B0E366E620EE82EFED73630
:106D09002EFCD700D0829E250E816E828C0B0E360A
:106D19006E620EE82EFED7362EFCD700D0829C126A
:106D290000110E816E829E0B0E366E620EE82EFEEB
:106D3900D7362EFCD700D0829E490E816E828C0BED
:106D49000E366E620EE82EFED7362EFCD700D082A4
:106D59009C1200110E816E829E0B0E366E620EE839
:106D69002EFED7362EFCD700D0829E610E816E8210
:106D79008C0B0E366E620EE82EFED7362EFCD7002F
:106D8900D0829C1200110E816E829E0B0E366E62AD
:106D99000EE82EFED7362EFCD700D0829E330E8108
:106DA9006E828C0B0E366E620EE82EFED7362EFCE6
:106DB900D700D0829C1200110E816E829E0B0E3676
:106DC9006E620EE82EFED7362EFCD700D0829E25A5
:106DD9000E816E828C0B0E366E620EE82EFED73651
:106DE9002EFCD700D0829C1200110E816E829E0B60
:106DF9000E366E620EE82EFED7362EFCD700D082F4
:106E09009E050E816E828C0B0E366E620EE82EFE8A
:106E1900D7362EFCD700D0829C1200110E816E82CB
:106E29009E0B0E366E620EE82EFED7362EFCD7006C
:106E3900D0829EF10E816E828C0B0E366E620EE848
:106E49002EFED7362EFCD700D0829C1200110E815F
:106E59006E829E0B0E366E620EE82EFED7362EFC23
:106E6900D700D0829E010E816E828C0B0E366E6227
:106E79000EE82EFED7362EFCD700D0829C120011C8
:106E89000E816E829E0B0E366E620EE82EFED7368E
:106E99002EFCD700D0829E210E816E828C0B0E367D
:106EA9006E620EE82EFED7362EFCD700D0829C12D9
:106EB90000010E1126000E122213221422E80E11CF
:106EC9001810E1030E121813101410D8A4120000A0
:106ED9000E2D6E000E116E000E126E000E136E0056
:106EE9000E146E1200990EF66E690EF76E000EF80A
:106EF9006E0900F5CF44F00900F5CF45F00900F51A
:106F0900CF46F000EE01F0350EEE6AE806FDE1002D
:106F19000EF86E000191EF37F00E0EC16E9280925D
:106F290082928894929494949C949E92849286924C
:106F39008A9480C30EC216F80EC016C08EC2800095
:106F49000E936E8168829E829C82928294000E3793
:106F59006E010E366ED3EC34F00009D8B402D001BC
:106F69000E01D0000E426E000E376E020E366ED341
:106F7900EC34F03F6E3F50406E416A63EC38F041AB
:106F8900EC3EF07DEC3AF0F9D7CEEC34F00D0E384A
:106F99006EAF0E376EB60EE82EFED7372EFCD738F9
:106FA9002EFAD700D0CDEC35F0010E1526000E16BD
:106FB900221722182218BEF6D718501710161004D7
:106FC900E1FA0E155CD8A0EED7000E156E000E166C
:106FD9006E000E176E000E186EE6EC35F0010E15F8
:106FE90026000E16221722182218BEF6D718501797
:106FF90010161004E1FA0E155CD8A0EED7000E1594
:107009006E000E166E000E176E000E186E000E2D15
:107019006E1200828280A602D0010E01D0000E32CB
:107029006E010E1D26000E1E221F2220220FEC3596
:10703900F036C027F037C028F023EC35F0900E1D4C
:107049001811E1D00E1E180EE1030E1F182010D8DA
:10705900A409D0000E1D6E000E1E6E000E1F6E00DC
:107069000E206E1AD028BE15D0210E275C020E28DC
:1070790058D8A00FD0294A2A2A2ABE0BD0D10E29C6
:107089005C070E2A58D8A005D0000E2A6E000E29DA
:107099006E03D03204D8B4BDD78292000E1D6E00A3
:1070A9000E1E6E000E1F6E000E206E000E2A6E0060
:1070B9000E296E000E2F6E000E2E6E120080AA028F
:1070C900D0010E01D0000E436E070E3D6E7D0EE815
:1070D9002EFED73D2EFCD700F04350D8A422D04530
:1070E90004D8A41FD0010E2F6E2F04D8A41AD02EB5
:1070F90004D8A417D0010E2D6E000E2F6E000E2E8F
:107109006E000E266E000E256E080E3E6E9D0E3D1B
:107119006E060EE82EFED73D2EFCD73E2EFAD7B2CC
:10712900EC39F043C045F082A002D0010E01D00035
:107139000E306E070E3D6E7D0EE82EFED73D2EFCFD
:10714900D700F03050D8A422D04404D8A41FD001CD
:107159000E2E6E2E04D8A41AD02F04D8A417D0014D
:107169000E2D6E000E2E6E000E2F6E000E266E0076
:107179000E256E080E3E6E9D0E3D6E060EE82EFE25
:10718900D73D2EFCD73E2EFAD7B2EC39F030C044A9
:10719900F012000BD09BEC35F018D0B4EC35F0159B
:1071A900D0000E266E000E256E10D025C039F026AF
:1071B900C03AF03A50000AD8A4F3D73950000AD897
:1071C900B4E9D7010AD8B4E9D7EBD782A002D00134
:1071D9000E01D0000E306E3050D8A40DD04404D822
:1071E900A40AD0254A262A000E116E000E126E003E
:1071F9000E136E000E146E30C044F080AA02D00146
:107209000E01D0000E436E4350D8A42DD04504D8AA
:10721900B41AD029D0000E376E010E366E000E3822
:107229006EEBEC34F0C9EC37F01ED0000E376E016E
:107239000E366E010E386EEBEC34F0F4D7000E26E4
:107249006E000E256E10D025C039F026C03AF03AEE
:1072590050000AD8A4F3D73950000AD8B4DBD701B3
:107269000AD8B4E3D7EBD743C045F05DEC37F02D2E
:1072790004D8A412009AD70BD09BEC35F018D0B4DF
:10728900EC35F015D0000E266E000E256E10D025B7
:10729900C039F026C03AF03A50000AD8A4F3D739D9
:1072A90050000AD8B4E9D7010AD8B4E9D7EBD78294
:1072B900A002D0010E01D0000E306E3050D8A40DBE
:1072C900D04404D8A40AD0254A262A000E116E00FB
:1072D9000E126E000E136E000E146E30C044F08054
:1072E900AA02D0010E01D0000E436E4350D8A42D3E
:1072F900D04504D8B41AD029D0000E376E030E3603
:107309006E000E386EEBEC34F0C9EC37F01ED0008D
:107319000E376E030E366E010E386EEBEC34F0F458
:10732900D7000E266E000E256E10D025C039F02626
:10733900C03AF03A50000AD8A4F3D73950000AD815
:10734900B4DBD7010AD8B4E3D7EBD743C045F05D26
:10735900EC37F02D04D8A412009AD711D037EC35A8
:10736900F024D050EC35F021D069EC35F01ED082F4
:10737900EC35F01BD0000E266E000E256E16D025BA
:10738900C03BF026C03CF03C50000AD8A4F3D73BE0
:1073990050000AD8B4E3D7010AD8B4E3D7030AD80E
:1073A900B4E3D7010AD8B4E3D7E5D782A002D00164
:1073B9000E01D0000E306E3050D8A40DD04404D840
:1073C900A40AD0254A262A000E116E000E126E005C
:1073D9000E136E000E146E30C044F080AA02D00164
:1073E9000E01D0000E436E4350D8A47AD04504D87C
:1073F900A477D0000E116E000E126E000E136E00EF
:107409000E146E58D0000E266E000E256E080E3C26
:107419006E9D0E3B6E060EE82EFED73B2EFCD73C2A
:107429002EFAD7CEEC38F05CD0000E266E000E2571
:107439006E080E3C6E9D0E3B6E060EE82EFED73B87
:107449002EFCD73C2EFAD765EC3BF04AD0000E262D
:107459006E000E256E080E3C6E9D0E3B6E060EE804
:107469002EFED73B2EFCD73C2EFAD740EC39F0380C
:10747900D0000E266E000E256E080E3C6E9D0E3B4A
:107489006E060EE82EFED73B2EFCD73C2EFAD7D33C
:10749900EC3CF026D0000E266E000E256E080E3C40
:1074A9006E9D0E3B6E060EE82EFED73B2EFCD73C9A
:1074B9002EFAD716D025C03BF026C03CF03C500030
:1074C9000AD8A4E8D73B50000AD8B49CD7010AD8F7
:1074D900B4ABD7030AD8B4BAD7010AD8B4C9D7DA32
:1074E900D743C045F05DEC37F02D04D8A41200470E
:1074F900D780A802D0010E01D0000E336E020E39DA
:107509006E450E386EAA0EE82EFED7382EFCD739F6
:107519002EFAD73350D8A4D1D04604D8A4CED0025D
:107529000E396E450E386EAA0EE82EFED7382EFC9F
:10753900D7392EFAD780A402D0010E01D0000E311E
:107549006E3350D8A4BAD04604D8A4B7D03104D8E1
:10755900A4B4D0010E2B6E828480A402D0010E0146
:10756900D0000E316E010E1D26000E1E221F222094
:107579002223EC35F03150D8A429D0000E2B6E000F
:107589000E376E010E366ED3EC34F0386E38503A41
:107599006E3B6A3A043B10D8A419D0330E396EBB3E
:1075A9000E386EE00EE82EFED7382EFCD7392EFAAB
:1075B900D782948282030E396E8A0E386E560EE88F
:1075C9002EFED7382EFCD7392EFAD78292900E1D6F
:1075D9001811E1D00E1E180EE1030E1F182010D845
:1075E900A409D0000E1D6E000E1E6E000E1F6E0047
:1075F9000E206E1AD028BE15D0210E275C020E2847
:1076090058D8A00FD0294A2A2A2ABE0BD0D10E2930
:107619005C070E2A58D8A005D0000E2A6E000E2944
:107629006E03D02B04D8B497D78294000E1D6E0038
:107639000E1E6E000E1F6E000E206E000E2A6E00CA
:107649000E296E80A202D0010E01D0000E346E0107
:107659000E1926000E1A221B221C2280A202D0011A
:107669000E01D0000E346E400E19181CE1420E1A9C
:107679001819E10F0E1B181C10D8A414D080A402ED
:10768900D0010E01D0000E316E3150D8A40ED00EAB
:10769900EC38F0000E196E000E1A6E000E1B6E000B
:1076A9000E1C6E03D03404D8B4D2D7000E196E0064
:1076B9000E1A6E000E1B6E000E1C6E33C046F012C1
:1076C9000035D09BEC35F06CD0B4EC35F069D09531
:1076D900EC36F066D0AEEC36F063D0C7EC36F0602D
:1076E900D0E0EC36F05DD0F9EC36F05AD012EC3738
:1076F900F057D02BEC37F054D044EC37F051D0FF91
:10770900EC35F04ED018EC36F04BD031EC36F04871
:10771900D04AEC36F045D063EC36F042D07CEC36FA
:10772900F03FD0000E266E000E256E3AD025C039E6
:10773900F026C03AF03A50000AD8A4F3D7395000DD
:107749000AD8B4BFD7010AD8B4BFD7030AD8B4BF7F
:10775900D7010AD8B4BFD7070AD8B4BFD7010AD806
:10776900B4BFD7030AD8B4BFD7010AD8B4BFD70F5B
:107779000AD8B4BFD7010AD8B4BFD7030AD8B4BF4F
:10778900D7010AD8B4BFD7070AD8B4BFD7010AD8D6
:10779900B4BFD7030AD8B4BFD7010AD8B4BFD7C179
:1077A900D782A002D0010E01D0000E306E3050D821
:1077B900A40DD04404D8A40AD0254A262A000E11C3
:1077C9006E000E126E000E136E000E146E30C04461
:1077D900F080AA02D0010E01D0000E436E4350D8AA
:1077E900A4D5D04504D8B498D0D1D0000E376E02B4
:1077F9000E366E000E386EEBEC34F0C9EC37F0C67D
:10780900D0000E376E020E366E010E386EEBEC3478
:10781900F0F4D7000E376E020E366E020E386EEB9C
:10782900EC34F0EBD7000E376E020E366E030E38CD
:107839006EEBEC34F0E2D7000E376E020E366E04B2
:107849000E386EEBEC34F0D9D7000E376E020E36D7
:107859006E050E386EEBEC34F0D0D7000E376E02A1
:107869000E366E060E386EEBEC34F0C7D7000E37C5
:107879006E020E366E070E386EEBEC34F0BED70092
:107889000E376E020E366E080E386EEBEC34F0B51C
:10789900D7000E376E020E366E090E386EEBEC34D9
:1078A900F0ACD7000E376E020E366E0A0E386EEB4C
:1078B900EC34F0A3D7000E376E020E366E0B0E387D
:1078C9006EEBEC34F09AD7000E376E020E366E0C62
:1078D9000E386EEBEC34F091D7000E376E020E368F
:1078E9006E0D0E386EEBEC34F088D7000E376E0251
:1078F9000E366E0E0E386EEBEC34F07FD7000E3775
:107909006E020E366E0F0E386EEBEC34F076D70041
:107919000E266E000E256E3AD025C039F026C03AE3
:10792900F03A50000AD8A4F3D73950000AD8B45D08
:10793900D7010AD8B465D7030AD8B46BD7010AD8D6
:10794900B471D7070AD8B477D7010AD8B47DD70359
:107959000AD8B483D7010AD8B489D70F0AD8B48F03
:10796900D7010AD8B495D7030AD8B49BD7010AD846
:10797900B4A1D7070AD8B4A7D7010AD8B4ADD70399
:107989000AD8B4B3D7010AD8B4B9D7C1D743C045C7
:10799900F05DEC37F02D04D8A41200C8D635D09B81
:1079A900EC35F06CD0B4EC35F069D095EC36F06676
:1079B900D0AEEC36F063D0C7EC36F060D0E0EC36F0
:1079C900F05DD0F9EC36F05AD012EC37F057D02BE5
:1079D900EC37F054D044EC37F051D0FFEC35F04E91
:1079E900D018EC36F04BD031EC36F048D04AEC36B2
:1079F900F045D063EC36F042D07CEC36F03FD00055
:107A09000E266E000E256E3AD025C039F026C03AF2
:107A1900F03A50000AD8A4F3D73950000AD8B4BFB5
:107A2900D7010AD8B4BFD7030AD8B4BFD7010AD837
:107A3900B4BFD7070AD8B4BFD7010AD8B4BFD70390
:107A49000AD8B4BFD7010AD8B4BFD70F0AD8B4BF70
:107A5900D7010AD8B4BFD7030AD8B4BFD7010AD807
:107A6900B4BFD7070AD8B4BFD7010AD8B4BFD70360
:107A79000AD8B4BFD7010AD8B4BFD7C1D782A002E8
:107A8900D0010E01D0000E306E3050D8A40DD04474
:107A990004D8A40AD0254A262A000E116E000E1217
:107AA9006E000E136E000E146E30C044F080AA02F0
:107AB900D0010E01D0000E436E4350D8A4D5D04555
:107AC90004D8B498D0D1D0000E376E040E366E00AB
:107AD9000E386EEBEC34F0C9EC37F0C6D0000E3737
:107AE9006E040E366E010E386EEBEC34F0F4D700EE
:107AF9000E376E040E366E020E386EEBEC34F0EB78
:107B0900D7000E376E040E366E030E386EEBEC346A
:107B1900F0E2D7000E376E040E366E040E386EEBA7
:107B2900EC34F0D9D7000E376E040E366E050E38D8
:107B39006EEBEC34F0D0D7000E376E040E366E06BD
:107B49000E386EEBEC34F0C7D7000E376E040E36E4
:107B59006E070E386EEBEC34F0BED7000E376E04AC
:107B69000E366E080E386EEBEC34F0B5D7000E37D2
:107B79006E040E366E090E386EEBEC34F0ACD7009D
:107B89000E376E040E366E0A0E386EEBEC34F0A327
:107B9900D7000E376E040E366E0B0E386EEBEC34D2
:107BA900F09AD7000E376E040E366E0C0E386EEB57
:107BB900EC34F091D7000E376E040E366E0D0E3888
:107BC9006EEBEC34F088D7000E376E040E366E0E6D
:107BD9000E386EEBEC34F07FD7000E376E040E369C
:107BE9006E0F0E386EEBEC34F076D7000E266E0071
:107BF9000E256E3AD025C039F026C03AF03A500029
:107C09000AD8A4F3D73950000AD8B45DD7010AD8E5
:107C1900B465D7030AD8B46BD7010AD8B471D707AA
:107C29000AD8B477D7010AD8B47DD7030AD8B48360
:107C3900D7010AD8B489D70F0AD8B48FD7010AD87F
:107C4900B495D7030AD8B49BD7010AD8B4A1D707EA
:107C59000AD8B4A7D7010AD8B4ADD7030AD8B4B3A0
:107C6900D7010AD8B4B9D7C1D743C045F05DEC37BD
:107C7900F02D04D8A41200C8D680A202D0010E01AA
:107C8900D0000E346E020E3D6E450E3C6EAA0EE813
:107C99002EFED73C2EFCD73D2EFAD73404D8A4A803
:107CA900D13550D8A4A5D1020E3D6E450E3C6EAA21
:107CB9000EE82EFED73C2EFCD73D2EFAD780A40223
:107CC900D0010E01D0000E316E3404D8A491D13503
:107CD90050D8A48ED13150D8A48BD1000E376E0262
:107CE9000E366ED3EC34F03C6E3C50406E416A4027
:107CF900C036F041C037F0030E396EE80E386EFC1D
:107D0900EC34F036C040F037C041F0EDD01A0E3DEA
:107D19006E5E0E3C6E6E0EE82EFED73C2EFCD73DF5
:107D29002EFAD782D0330E3D6EBB0E3C6EE00EE8C4
:107D39002EFED73C2EFCD73D2EFAD758D14D0E3DFD
:107D49006E190E3C6E500EE82EFED73C2EFCD73D28
:107D59002EFAD74CD1660E3D6E760E3C6EC10EE8FA
:107D69002EFED73C2EFCD73D2EFAD7A4D07F0E3D50
:107D79006ED40E3C6E320EE82EFED73C2EFCD73D5B
:107D89002EFAD734D1990E3D6E310E3C6EA20EE813
:107D99002EFED73C2EFCD73D2EFAD746D0B20E3D4B
:107DA9006E8F0E3C6E130EE82EFED73C2EFCD73D8F
:107DB9002EFAD780D0CB0E3D6EEC0E3C6E840EE8C9
:107DC9002EFED73C2EFCD73D2EFAD72ED0E50E3D00
:107DD9006E490E3C6EF50EE82EFED73C2EFCD73DC3
:107DE9002EFAD768D0FE0E3D6EA70E3C6E660EE8E1
:107DF9002EFED73C2EFCD73D2EFAD7F8D0FE0E3DED
:107E09006EA70E3C6E660EE82EFED73C2EFCD73DC3
:107E19002EFAD71A0E3D6E5E0E3C6E6E0EE82EFEE1
:107E2900D73C2EFCD73D2EFAD700D0E0D0FE0E3D30
:107E39006EA70E3C6E660EE82EFED73C2EFCD73D93
:107E49002EFAD7330E3D6EBB0E3C6EE00EE82EFEC9
:107E5900D73C2EFCD73D2EFAD7C9D0FE0E3D6EA7D2
:107E69000E3C6E660EE82EFED73C2EFCD73D2EFA50
:107E7900D74D0E3D6E190E3C6E500EE82EFED73CC6
:107E89002EFCD73D2EFAD7B2D0FE0E3D6EA70E3C82
:107E99006E660EE82EFED73C2EFCD73D2EFAD7662D
:107EA9000E3D6E760E3C6EC10EE82EFED73C2EFCC2
:107EB900D73D2EFAD700F09AD0FE0E3D6EA70E3CA4
:107EC9006E660EE82EFED73C2EFCD73D2EFAD77FE4
:107ED9000E3D6ED40E3C6E320EE82EFED73C2EFCC3
:107EE900D73D2EFAD783D040C03CF041C03DF03D8C
:107EF90050000AD8B42ED0030AD8B42ED0040AD818
:107F0900B430D00C0AD8B432D0040AD8B434D01C56
:107F19000AD8B436D0040AD8B438D00C0AD8B43A3E
:107F2900D0040AD8B43CD03C0AD8B43ED0040AD80C
:107F3900B440D00D0AD8B442D0040AD8B444D01CF5
:107F49000AD8B446D0040AD8B448D00C0AD8B44ADE
:107F5900D04DD03C50000A4AD03C50E80AD8B4D69B
:107F6900D645D03C50D00AD8B4DDD640D03C50B824
:107F79000AD8B4E4D63BD03C50A00AD8B4EBD636E4
:107F8900D03C50880AD8B4F2D631D03C50700AD8C7
:107F9900B4F9D62CD03C50580AD8B400D727D03CD5
:107FA90050400AD8B407D722D03C50280AD8B40E7A
:107FB900D71DD03C50100AD8B415D718D03C50F86A
:107FC9000AD8B41CD713D03C50E00AD8B42FD70E26
:107FD900D03C50C80AD8B441D709D03C50B00AD8CF
:107FE900B453D704D03C50980AD8B466D70EEC38AD
:077FF900F034C035F0120066
:020000040020DA
:08000000FFFFFFFFFFFFFFFF00
:020000040030CA
:0E000000000C191EFF8381FF0FC00FE00F40A0
:00000001FF
