:020000040000FA
:0400000068EF39F07C
:106DA100010101829E829C110E816E120032C0A9E6
:106DB100FFA69EA69CA680A85012008D0E816E8211
:106DC1008E080EE82EFED700F0829E8F0E816E8215
:106DD1008C080EE82EFED700F0829C120032C0A96A
:106DE100FF34C0A8FFA69EA69CA684F29E550EA7BE
:106DF1006EAA0EA76EA682F28EA6B2FED71200C2AE
:106E010082C2B2FED7C4CF21F0226A2150226E2164
:106E11006AC3502124216E000E2220226E21C0322D
:106E2100F022C033F0120000EC37F032C025F0330D
:106E3100C026F026BE09D0210E255C020E2658D8A8
:106E4100A003D0DEEC36F01200D2EC36F0120019BD
:106E51000E816E828E0B0E326E620EE82EFED732DE
:106E61002EFCD700D0829EF30E816E828C0B0E32E7
:106E71006E620EE82EFED7322EFCD700D0829C1215
:106E810000190E816E828E0B0E326E620EE82EFE9E
:106E9100D7322EFCD700D0829E490E816E828C0B98
:106EA1000E326E620EE82EFED7322EFCD700D08253
:106EB1009C1200190E816E828E0B0E326E620EE8EC
:106EC1002EFED7322EFCD700D0829E610E816E82BB
:106ED1008C0B0E326E620EE82EFED7322EFCD700DE
:106EE100D0829C1200190E816E828E0B0E326E6260
:106EF1000EE82EFED7322EFCD700D0829E330E81B3
:106F01006E828C0B0E326E620EE82EFED7322EFC94
:106F1100D700D0829C1200110E816E829E0B0E3220
:106F21006E620EE82EFED7322EFCD700D0829E81F3
:106F31000E816E828C0B0E326E620EE82EFED732FF
:106F41002EFCD700D0829C1200110E816E829E0B06
:106F51000E326E620EE82EFED7322EFCD700D082A2
:106F61009EF30E816E828C0B0E326E620EE82EFE47
:106F7100D7322EFCD700D0829C1200FE0E816E8289
:106F81008E0B0E326E620EE82EFED7322EFCD7002B
:106F9100D0829E110E816E829C0B0E326E620EE8C3
:106FA1002EFED7322EFCD700D0829C1200FE0E811D
:106FB1006E828E0B0E326E620EE82EFED7322EFCE2
:106FC100D700D0829EFE0E816E828C0B0E326E62D5
:106FD1000EE82EFED7322EFCD700D0829C1200F391
:106FE1000E816E828E0B0E326E620EE82EFED7324D
:106FF1002EFCD700D0829E810E816E828C0B0E32C8
:107001006E620EE82EFED7322EFCD700D0829C1283
:1070110000F30E816E828E0B0E326E620EE82EFE32
:10702100D7322EFCD700D0829EF30E816E828C0B5C
:107031000E326E620EE82EFED7322EFCD700D082C1
:107041009C1200F30E816E828E0B0E326E620EE880
:107051002EFED7322EFCD700D0829E490E816E8241
:107061008C0B0E326E620EE82EFED7322EFCD7004C
:10707100D0829C1200F30E816E828E0B0E326E62F4
:107081000EE82EFED7322EFCD700D0829E610E81F3
:107091006E828C0B0E326E620EE82EFED7322EFC03
:1070A100D700D0829C1200F30E816E828E0B0E32BD
:1070B1006E620EE82EFED7322EFCD700D0829E33B0
:1070C1000E816E828C0B0E326E620EE82EFED7326E
:1070D1002EFCD700D0829C1200F30E816E828E0BA3
:1070E1000E326E620EE82EFED7322EFCD700D08211
:1070F1009E250E816E828C0B0E326E620EE82EFE84
:10710100D7322EFCD700D0829C1200110E816E82E4
:107111009E0B0E326E620EE82EFED7322EFCD70089
:10712100D0829E490E816E828C0B0E326E620EE809
:107131002EFED7322EFCD700D0829C1200110E8178
:107141006E829E0B0E326E620EE82EFED7322EFC40
:10715100D700D0829E610E816E828C0B0E326E62E0
:107161000EE82EFED7322EFCD700D0829C120011E1
:107171000E816E829E0B0E326E620EE82EFED732AB
:107181002EFCD700D0829E330E816E828C0B0E3284
:107191006E620EE82EFED7322EFCD700D0829C12F2
:1071A10000110E816E829E0B0E326E620EE82EFE73
:1071B100D7322EFCD700D0829E250E816E828C0B99
:1071C1000E326E620EE82EFED7322EFCD700D08230
:1071D1009C1200110E816E829E0B0E326E620EE8C1
:1071E1002EFED7322EFCD700D0829E050E816E82F4
:1071F1008C0B0E326E620EE82EFED7322EFCD700BB
:10720100D0829C1200110E816E829E0B0E326E6234
:107211000EE82EFED7322EFCD700D0829EF10E81D1
:107221006E828C0B0E326E620EE82EFED7322EFC71
:10723100D700D0829C1200110E816E829E0B0E32FD
:107241006E620EE82EFED7322EFCD700D0829E0150
:107251000E816E828C0B0E326E620EE82EFED732DC
:107261002EFCD700D0829C1200110E816E829E0BE3
:107271000E326E620EE82EFED7322EFCD700D0827F
:107281009E210E816E828C0B0E326E620EE82EFEF6
:10729100D7322EFCD700D0829C1200010E1126009D
:1072A1000E122213221422E80E111810E1030E12FD
:1072B1001813101410D8A41200000E296E000E111C
:1072C1006E000E126E000E136E000E146E1200A1EF
:1072D1000EF66E6D0EF76E000EF86E0900F5CF3FDB
:1072E100F00900F5CF40F00900F5CF41F000EE01C3
:1072F100F0310EEE6AE806FDE1000EF86E00018243
:10730100EF39F00E0EC16E9280928292889492941F
:1073110094949C949E92849286928A9480C30EC285
:1073210016F80EC016C08EC280000E936E81688260
:107331009E829C82928294000E336E000E326ED732
:10734100EC36F03B6E3B503C6E3D6A58EC3BF0AD89
:10735100EC39F0C3EC3BF0F9D780A202D0010E0169
:10736100D0000E306E020E356E450E346EAA0EE858
:107371002EFED7342EFCD7352EFAD73004D8A42AC6
:10738100D03150D8A427D0020E356E450E346EAAE6
:107391000EE82EFED7342EFCD7352EFAD780A40264
:1073A100D0010E01D0000E2D6E3004D8A413D031BF
:1073B10050D8A410D02D50D8A40DD0030E356E8A0C
:1073C1000E346E560EE82EFED7342EFCD7352EFA2B
:1073D100D733EC3AF030C031F01200D2EC36F00D78
:1073E1000E346EAF0E336EB60EE82EFED7332EFC82
:1073F100D7342EFAD700D0BEEC37F0010E15260097
:107401000E16221722182218BEF6D718501710167A
:107411001004E1FA0E155CD8A0EED7000E156E002F
:107421000E166E000E176E000E186ED7EC37F001B7
:107431000E1526000E16221722182218BEF6D7188E
:10744100501710161004E1FA0E155CD8A0EED70003
:107451000E156E000E166E000E176E000E186E00E1
:107461000E296E1200828280A602D0010E01D00088
:107471000E2E6E010E1D26000E1E221F222022003E
:10748100EC37F032C025F033C026F014EC37F09021
:107491000E1D1811E1D00E1E180EE1030E1F18204B
:1074A10010D8A409D0000E1D6E000E1E6E000E1F16
:1074B1006E000E206E1AD026BE15D0210E255C025C
:1074C1000E2658D8A00FD0274A282A28BE0BD0D183
:1074D1000E275C070E2858D8A005D0000E286E0094
:1074E1000E276E03D02E04D8B4BDD78292000E1D94
:1074F1006E000E1E6E000E1F6E000E206E000E2816
:107501006E000E276E000E2B6E000E2A6E12000BFF
:10751100D08CEC37F018D0A5EC37F015D0000E2444
:107521006E000E236E10D023C035F024C036F03625
:1075310050000AD8A4F3D73550000AD8B4E9D701CE
:107541000AD8B4E9D7EBD782A002D0010E01D0004E
:107551000E2C6E2C50D8A405D03F04D8A402D02301
:107561004A242A2CC03FF080AA02D0010E01D0008B
:107571000E3E6E3E50D8A42DD04004D8B41AD02966
:10758100D0000E336E010E326E000E346EEFEC360B
:10759100F0EEEC39F01ED0000E336E010E326E01AA
:1075A1000E346EEFEC36F0F4D7000E246E000E238D
:1075B1006E10D023C035F024C036F03650000AD802
:1075C100A4F3D73550000AD8B4DBD7010AD8B4E305
:1075D100D7EBD73EC040F02904D8A41200A4D70BA2
:1075E100D08CEC37F018D0A5EC37F015D0000E2474
:1075F1006E000E236E10D023C035F024C036F03655
:1076010050000AD8A4F3D73550000AD8B4E9D701FD
:107611000AD8B4E9D7EBD782A002D0010E01D0007D
:107621000E2C6E2C50D8A405D03F04D8A402D02330
:107631004A242A2CC03FF080AA02D0010E01D000BA
:107641000E3E6E3E50D8A42DD04004D8B41AD02995
:10765100D0000E336E030E326E000E346EEFEC3638
:10766100F0EEEC39F01ED0000E336E030E326E01D7
:107671000E346EEFEC36F0F4D7000E246E000E23BC
:107681006E10D023C035F024C036F03650000AD831
:10769100A4F3D73550000AD8B4DBD7010AD8B4E334
:1076A100D7EBD73EC040F02904D8A41200A4D7805C
:1076B100AA02D0010E01D0000E3E6E070E396E7D7A
:1076C1000EE82EFED7392EFCD700F03E50D8A4226A
:1076D100D04004D8A41FD0010E2B6E2B04D8A41ABD
:1076E100D02A04D8A417D0010E296E000E2B6E00EB
:1076F1000E2A6E000E246E000E236E080E3A6E9D49
:107701000E396E060EE82EFED7392EFCD73A2EFA28
:10771100D77DEC3CF03EC040F082A002D0010E01CA
:10772100D0000E2C6E070E396E7D0EE82EFED73975
:107731002EFCD700F02C50D8A422D03F04D8A41F8F
:10774100D0010E2A6E2A04D8A41AD02B04D8A4176B
:10775100D0010E296E000E2A6E000E2B6E000E2433
:107761006E000E236E080E3A6E9D0E396E060EE8FF
:107771002EFED7392EFCD73A2EFAD77DEC3CF02CD1
:10778100C03FF0120080A802D0010E01D0000E2FE0
:107791006E020E356E450E346EAA0EE82EFED734FB
:1077A1002EFCD7352EFAD72F50D8A4A3D04104D818
:1077B100A4A0D0020E356E450E346EAA0EE82EFE40
:1077C100D7342EFCD7352EFAD780A402D0010E0172
:1077D100D0000E2D6E2F50D8A48CD04104D8A4898E
:1077E100D02D04D8A486D0828480A402D0010E01B9
:1077F100D0000E2D6E010E1D26000E1E221F22200E
:107801002214EC37F0900E1D1811E1D00E1E180E47
:10781100E1030E1F182010D8A409D0000E1D6E0020
:107821000E1E6E000E1F6E000E206E1AD026BE15A3
:10783100D0210E255C020E2658D8A00FD0274A2849
:107841002A28BE0BD0D10E275C070E2858D8A005D8
:10785100D0000E286E000E276E03D02D04D8B4C3BD
:10786100D78294000E1D6E000E1E6E000E1F6E005C
:107871000E206E000E286E000E276E80A202D0012F
:107881000E01D0000E306E010E1926000E1A221BB9
:10789100221C2280A202D0010E01D0000E306E40C7
:1078A1000E19181CE1420E1A1819E10F0E1B181CB3
:1078B10010D8A414D080A402D0010E01D0000E2D46
:1078C1006E2D50D8A40ED033EC3AF0000E196E0094
:1078D1000E1A6E000E1B6E000E1C6E03D03004D803
:1078E100B4D2D7000E196E000E1A6E000E1B6E0078
:1078F1000E1C6E2FC041F0120011D028EC37F0247D
:10790100D041EC37F021D05AEC37F01ED073EC3770
:10791100F01BD0000E246E000E236E16D023C0374C
:10792100F024C038F03850000AD8A4F3D7375000FB
:107931000AD8B4E3D7010AD8B4E3D7030AD8B4E329
:10794100D7010AD8B4E3D7E5D782A002D0010E014E
:10795100D0000E2C6E2C50D8A405D03F04D8A40220
:10796100D0234A242A2CC03FF080AA02D0010E0164
:10797100D0000E3E6E3E50D8A472D04004D8B45907
:10798100D06ED0000E246E000E236E080E386E9D50
:107991000E376E060EE82EFED7372EFCD7382EFA9C
:1079A100D788EC3AF05CD0000E246E000E236E08EE
:1079B1000E386E9D0E376E060EE82EFED7372EFC62
:1079C100D7382EFAD738EC3DF04AD0000E246E009D
:1079D1000E236E080E386E9D0E376E060EE82EFED3
:1079E100D7372EFCD7382EFAD7F0EC3AF038D00042
:1079F1000E246E000E236E080E386E9D0E376E0635
:107A01000EE82EFED7372EFCD7382EFAD79CEC3E47
:107A1100F026D0000E246E000E236E080E386E9DE7
:107A21000E376E060EE82EFED7372EFCD7382EFA0B
:107A3100D716D023C037F024C038F03850000AD808
:107A4100A4E8D73750000AD8B49CD7010AD8B4AB00
:107A5100D7030AD8B4BAD7010AD8B4C9D7DAD73EFE
:107A6100C040F04EEC39F02904D8A4120057D735A4
:107A7100D08CEC37F06CD0A5EC37F069D086EC38BF
:107A8100F066D09FEC38F063D0B8EC38F060D0D11C
:107A9100EC38F05DD0EAEC38F05AD003EC39F0570D
:107AA100D01CEC39F054D035EC39F051D0F0EC3732
:107AB100F04ED009EC38F04BD022EC38F048D03BF6
:107AC100EC38F045D054EC38F042D06DEC38F03F52
:107AD100D0000E246E000E236E3AD023C035F02460
:107AE100C036F03650000AD8A4F3D73550000AD872
:107AF100B4BFD7010AD8B4BFD7030AD8B4BFD701DE
:107B01000AD8B4BFD7070AD8B4BFD7010AD8B4BFBF
:107B1100D7030AD8B4BFD7010AD8B4BFD70F0AD840
:107B2100B4BFD7010AD8B4BFD7030AD8B4BFD701AD
:107B31000AD8B4BFD7070AD8B4BFD7010AD8B4BF8F
:107B4100D7030AD8B4BFD7010AD8B4BFD7C1D782E7
:107B5100A002D0010E01D0000E2C6E2C50D8A4052D
:107B6100D03F04D8A402D0234A242A2CC03FF0805D
:107B7100AA02D0010E01D0000E3E6E3E50D8A4D50F
:107B8100D04004D8B498D0D1D0000E336E020E325A
:107B91006E000E346EEFEC36F0EEEC39F0C6D0002C
:107BA1000E336E020E326E010E346EEFEC36F0F4CF
:107BB100D7000E336E020E326E020E346EEFEC36CB
:107BC100F0EBD7000E336E020E326E030E346EEF01
:107BD100EC36F0E2D7000E336E020E326E040E3434
:107BE1006EEFEC36F0D9D7000E336E020E326E0511
:107BF1000E346EEFEC36F0D0D7000E336E020E323B
:107C01006E060E346EEFEC36F0C7D7000E336E02FF
:107C11000E326E070E346EEFEC36F0BED7000E3327
:107C21006E020E326E080E346EEFEC36F0B5D700F0
:107C31000E336E020E326E090E346EEFEC36F0AC7E
:107C4100D7000E336E020E326E0A0E346EEFEC3632
:107C5100F0A3D7000E336E020E326E0B0E346EEFB0
:107C6100EC36F09AD7000E336E020E326E0C0E34E3
:107C71006EEFEC36F091D7000E336E020E326E0DC0
:107C81000E346EEFEC36F088D7000E336E020E32F2
:107C91006E0E0E346EEFEC36F07FD7000E336E02AF
:107CA1000E326E0F0E346EEFEC36F076D7000E24E6
:107CB1006E000E236E3AD023C035F024C036F03664
:107CC10050000AD8A4F3D73550000AD8B45DD701C3
:107CD1000AD8B465D7030AD8B46BD7010AD8B471EE
:107CE100D7070AD8B477D7010AD8B47DD7030AD801
:107CF100B483D7010AD8B489D70F0AD8B48FD70172
:107D01000AD8B495D7030AD8B49BD7010AD8B4A12D
:107D1100D7070AD8B4A7D7010AD8B4ADD7030AD870
:107D2100B4B3D7010AD8B4B9D7C1D73EC040F029FE
:107D310004D8A41200D2D635D08CEC37F06CD0A583
:107D4100EC37F069D086EC38F066D09FEC38F06300
:107D5100D0B8EC38F060D0D1EC38F05DD0EAEC3836
:107D6100F05AD003EC39F057D01CEC39F054D0352F
:107D7100EC39F051D0F0EC37F04ED009EC38F04B43
:107D8100D022EC38F048D03BEC38F045D054EC38F8
:107D9100F042D06DEC38F03FD0000E246E000E237F
:107DA1006E3AD023C035F024C036F03650000AD8E0
:107DB100A4F3D73550000AD8B4BFD7010AD8B4BF4D
:107DC100D7030AD8B4BFD7010AD8B4BFD7070AD896
:107DD100B4BFD7010AD8B4BFD7030AD8B4BFD701FB
:107DE1000AD8B4BFD70F0AD8B4BFD7010AD8B4BFD5
:107DF100D7030AD8B4BFD7010AD8B4BFD7070AD866
:107E0100B4BFD7010AD8B4BFD7030AD8B4BFD701CA
:107E11000AD8B4BFD7C1D782A002D0010E01D000C9
:107E21000E2C6E2C50D8A405D03F04D8A402D02328
:107E31004A242A2CC03FF080AA02D0010E01D000B2
:107E41000E3E6E3E50D8A4D5D04004D8B498D0D1BF
:107E5100D0000E336E040E326E000E346EEFEC362F
:107E6100F0EEEC39F0C6D0000E336E040E326E0126
:107E71000E346EEFEC36F0F4D7000E336E040E3292
:107E81006E020E346EEFEC36F0EBD7000E336E045B
:107E91000E326E030E346EEFEC36F0E2D7000E3385
:107EA1006E040E326E040E346EEFEC36F0D9D7004C
:107EB1000E336E040E326E050E346EEFEC36F0D0DA
:107EC100D7000E336E040E326E060E346EEFEC36B2
:107ED100F0C7D7000E336E040E326E070E346EEF0C
:107EE100EC36F0BED7000E336E040E326E080E343F
:107EF1006EEFEC36F0B5D7000E336E040E326E091C
:107F01000E346EEFEC36F0ACD7000E336E040E3249
:107F11006E0A0E346EEFEC36F0A3D7000E336E040A
:107F21000E326E0B0E346EEFEC36F09AD7000E3334
:107F31006E040E326E0C0E346EEFEC36F091D700FB
:107F41000E336E040E326E0D0E346EEFEC36F08889
:107F5100D7000E336E040E326E0E0E346EEFEC3619
:107F6100F07FD7000E336E040E326E0F0E346EEFBB
:107F7100EC36F076D7000E246E000E236E3AD02335
:107F8100C035F024C036F03650000AD8A4F3D735F6
:107F910050000AD8B45DD7010AD8B465D7030AD80E
:107FA100B46BD7010AD8B471D7070AD8B477D7010F
:107FB1000AD8B47DD7030AD8B483D7010AD8B489C3
:107FC100D70F0AD8B48FD7010AD8B495D7030AD8E6
:107FD100B49BD7010AD8B4A1D7070AD8B4A7D7014F
:107FE1000AD8B4ADD7030AD8B4B3D7010AD8B4B903
:0F7FF100D7C1D73EC040F02904D8A41200D2D681
:020000040020DA
:08000000FFFFFFFFFFFFFFFF00
:020000040030CA
:0E000000000C191EFF8381FF0FC00FE00F40A0
:00000001FF
