:020000040000FA
:0400000057EF3DF089
:107A8300010101C282C2B2FED7C4CF1DF01E6A1D1E
:107A9300501E6E1D6AC3501D241D6E000E1E201E37
:107AA3006E1DC02EF01EC02FF01200830EF66E7AEC
:107AB3000EF76E000EF86E0900F5CF32F00900F5EF
:107AC300CF33F00900F5CF34F000EE01F02D0EEEC8
:107AD3006AE806FDE1000EF86E000171EF3DF00E5D
:107AE3000EC16E92809282928894929494949C9404
:107AF3009E92849286928A9480C30EC216F80EC018
:107B030016C08EC280000E936E8168829E829C8214
:107B13009282944CEC3EF0B6EC3DF046EC3FF0F92B
:107B2300D743EC3DF02EC021F02FC022F022BE1728
:107B3300D0210E215C020E2258D8A011D08D0E81C7
:107B43006E828E080EE82EFED700F0829E8F0E8185
:107B53006E828C080EE82EFED700F0829C12008203
:107B63009E829C110E816E120080A202D0010E0132
:107B7300D0000E2C6E020E316E450E306EAA0EE84A
:107B83002EFED7302EFCD7312EFAD72C04D8A42AB8
:107B9300D02D50D8A427D0020E316E450E306EAAD8
:107BA3000EE82EFED7302EFCD7312EFAD780A40252
:107BB300D0010E01D0000E296E2C04D8A413D02DB1
:107BC30050D8A410D02950D8A40DD0030E316E8AFA
:107BD3000E306E560EE82EFED7302EFCD7312EFA1D
:107BE300D7F7EC3DF02CC02DF01200828280A60264
:107BF300D0010E01D0000E2A6E010E1926000E1AB6
:107C0300221B221C2243EC3DF02EC021F02FC02268
:107C1300F092EC3DF0900E191811E1D00E1A180EE7
:107C2300E1030E1B181C10D8A409D0000E196E0016
:107C33000E1A6E000E1B6E000E1C6E1AD022BE159D
:107C4300D0210E215C020E2258D8A00FD0234A2443
:107C53002A24BE0BD0D10E235C070E2458D8A005CE
:107C6300D0000E246E000E236E03D02A04D8B4BDB8
:107C7300D78292000E196E000E1A6E000E1B6E0054
:107C83000E1C6E000E246E000E236E000E276E0077
:107C93000E266E120080AA02D0010E01D0000E350E
:107CA3006E070E306E7D0EE82EFED7302EFCD70009
:107CB300F03550D8A422D03304D8A41FD0010E2706
:107CC3006E2704D8A41AD02604D8A417D0010E25F1
:107CD3006E000E276E000E266E000E206E000E1F25
:107CE3006E030E316E8A0E306E560EE82EFED730BE
:107CF3002EFCD7312EFAD7B7EC3EF035C033F082E5
:107D0300A002D0010E01D0000E286E070E306E7D4A
:107D13000EE82EFED7302EFCD700F02850D8A42230
:107D2300D03204D8A41FD0010E266E2604D8A41A7C
:107D3300D02704D8A417D0010E256E000E266E009E
:107D43000E276E000E206E000E1F6E030E316E8A1C
:107D53000E306E560EE82EFED7302EFCD7312EFA9B
:107D6300D7B7EC3EF028C032F0120064D0190E8170
:107D73006E828E0B0E2E6E620EE82EFED72E2EFC1A
:107D8300D700D0829EF30E816E828C0B0E2E6E6214
:107D93000EE82EFED72E2EFCD746D0829C61D0193A
:107DA3000E816E828E0B0E2E6E620EE82EFED72E85
:107DB3002EFCD700D0829E490E816E828C0B0E2E34
:107DC3006E620EE82EFED72E2EFCD72DD0190E8113
:107DD3006E828E0B0E2E6E620EE82EFED72E2EFCBA
:107DE300D700D0829E610E816E828C0B0E2E6E6246
:107DF3000EE82EFED72E2EFCD716D0190E816E82DA
:107E03008E0B0E2E6E620EE82EFED72E2EFCD700A2
:107E1300D0829E330E816E828C0B0E2E6E620EE824
:107E23002EFED72E2EFCD700D0B8D7000E206E0022
:107E33000E1F6E16D01FC02EF020C02FF02F500043
:107E43000AD8A4F3D72E50000AD8B490D7010AD881
:107E5300B4A6D7030AD8B4BAD7010AD8B4CED7E5A3
:107E6300D782A002D0010E01D0000E286E2850D870
:107E7300A405D03204D8A402D01F4A202A28C03235
:107E8300F02504D8A41200D6D780A802D0010E0191
:107E9300D0000E2B6E020E316E450E306EAA0EE828
:107EA3002EFED7302EFCD7312EFAD72B50D8A4A3D1
:107EB300D03404D8A4A0D0020E316E450E306EAA81
:107EC3000EE82EFED7302EFCD7312EFAD780A4022F
:107ED300D0010E01D0000E296E2B50D8A48CD034C3
:107EE30004D8A489D02904D8A486D0828480A4028B
:107EF300D0010E01D0000E296E010E1926000E1AB4
:107F0300221B221C2292EC3DF0900E191811E1D095
:107F13000E1A180EE1030E1B181C10D8A409D0006A
:107F23000E196E000E1A6E000E1B6E000E1C6E1ADA
:107F3300D022BE15D0210E215C020E2258D8A00FEC
:107F4300D0234A242A24BE0BD0D10E235C070E244F
:107F530058D8A005D0000E246E000E236E03D0293E
:107F630004D8B4C3D78294000E196E000E1A6E00A3
:107F73000E1B6E000E1C6E000E246E000E236E8010
:107F8300A202D0010E01D0000E2C6E010E152600A8
:107F93000E16221722182280A202D0010E01D00051
:107FA3000E2C6E400E15181CE1420E161819E10F27
:107FB3000E17181810D8A414D080A402D0010E01F3
:107FC300D0000E296E2950D8A40ED0F7EC3DF00056
:107FD3000E156E000E166E000E176E000E186E0351
:107FE300D02C04D8B4D2D7000E156E000E166E0036
:0D7FF3000E176E000E186E2BC034F0120039
:020000040020DA
:08000000FFFFFFFFFFFFFFFF00
:020000040030CA
:0E000000000C191EFF8381FF0FC00FE00F40A0
:00000001FF
