:020000040000FA
:04000000E4EF35F004
:10667300010101829E829C110E816E120036C0A917
:10668300FFA69EA69CA680A85012008D0E816E8246
:106693008E080EE82EFED700F0829E8F0E816E824A
:1066A3008C080EE82EFED700F0829C120036C0A99B
:1066B300FF38C0A8FFA69EA69CA684F29E550EA7EF
:1066C3006EAA0EA76EA682F28EA6B2FED71200366F
:1066D300503802F3CF3AF0F4CF3BF036503902F39F
:1066E300503B2637503802F3503B263AC036F03B36
:1066F300C037F01200C282C2B2FED7C4CF23F02447
:106703006A2350246E236AC3502324236E000E246D
:1067130020246E23C036F024C037F012007CEC3303
:10672300F036C027F037C028F028BE09D0210E2745
:106733005C020E2858D8A003D047EC33F012003B7C
:10674300EC33F01200190E816E828E0B0E366E62E0
:106753000EE82EFED7362EFCD700D0829EF30E8194
:106763006E828C0B0E366E620EE82EFED7362EFC32
:10677300D700D0829C1200190E816E828E0B0E36CA
:106783006E620EE82EFED7362EFCD700D0829E49CD
:106793000E816E828C0B0E366E620EE82EFED7369D
:1067A3002EFCD700D0829C1200190E816E828E0BB4
:1067B3000E366E620EE82EFED7362EFCD700D08240
:1067C3009E610E816E828C0B0E366E620EE82EFE7B
:1067D300D7362EFCD700D0829C1200190E816E8210
:1067E3008E0B0E366E620EE82EFED7362EFCD700C9
:1067F300D0829E330E816E828C0B0E366E620EE853
:106803002EFED7362EFCD700D0829C1200110E81AB
:106813006E829E0B0E366E620EE82EFED7362EFC6F
:10682300D700D0829E810E816E828C0B0E366E62F3
:106833000EE82EFED7362EFCD700D0829C12001114
:106843000E816E829E0B0E366E620EE82EFED736DA
:106853002EFCD700D0829EF30E816E828C0B0E36F7
:106863006E620EE82EFED7362EFCD700D0829C1225
:1068730000FE0E816E828E0B0E366E620EE82EFEC9
:10688300D7362EFCD700D0829E110E816E829C0BD0
:106893000E366E620EE82EFED7362EFCD700D0825F
:1068A3009C1200FE0E816E828E0B0E366E620EE817
:1068B3002EFED7362EFCD700D0829EFE0E816E822E
:1068C3008C0B0E366E620EE82EFED7362EFCD700EA
:1068D300D0829C1200F30E816E828E0B0E366E6296
:1068E3000EE82EFED7362EFCD700D0829E810E8175
:1068F3006E828C0B0E366E620EE82EFED7362EFCA1
:10690300D700D0829C1200F30E816E828E0B0E365E
:106913006E620EE82EFED7362EFCD700D0829EF391
:106923000E816E828C0B0E366E620EE82EFED7360B
:106933002EFCD700D0829C1200F30E816E828E0B48
:106943000E366E620EE82EFED7362EFCD700D082AE
:106953009E490E816E828C0B0E366E620EE82EFE01
:10696300D7362EFCD700D0829C1200F30E816E82A4
:106973008E0B0E366E620EE82EFED7362EFCD70037
:10698300D0829E610E816E828C0B0E366E620EE893
:106993002EFED7362EFCD700D0829C1200F30E8138
:1069A3006E828E0B0E366E620EE82EFED7362EFCEE
:1069B300D700D0829E330E816E828C0B0E366E62B0
:1069C3000EE82EFED7362EFCD700D0829C1200F3A1
:1069D3000E816E828E0B0E366E620EE82EFED73659
:1069E3002EFCD700D0829E250E816E828C0B0E3634
:1069F3006E620EE82EFED7362EFCD700D0829C1294
:106A030000110E816E829E0B0E366E620EE82EFE14
:106A1300D7362EFCD700D0829E490E816E828C0B16
:106A23000E366E620EE82EFED7362EFCD700D082CD
:106A33009C1200110E816E829E0B0E366E620EE862
:106A43002EFED7362EFCD700D0829E610E816E8239
:106A53008C0B0E366E620EE82EFED7362EFCD70058
:106A6300D0829C1200110E816E829E0B0E366E62D6
:106A73000EE82EFED7362EFCD700D0829E330E8131
:106A83006E828C0B0E366E620EE82EFED7362EFC0F
:106A9300D700D0829C1200110E816E829E0B0E369F
:106AA3006E620EE82EFED7362EFCD700D0829E25CE
:106AB3000E816E828C0B0E366E620EE82EFED7367A
:106AC3002EFCD700D0829C1200110E816E829E0B89
:106AD3000E366E620EE82EFED7362EFCD700D0821D
:106AE3009E050E816E828C0B0E366E620EE82EFEB4
:106AF300D7362EFCD700D0829C1200110E816E82F5
:106B03009E0B0E366E620EE82EFED7362EFCD70095
:106B1300D0829EF10E816E828C0B0E366E620EE871
:106B23002EFED7362EFCD700D0829C1200110E8188
:106B33006E829E0B0E366E620EE82EFED7362EFC4C
:106B4300D700D0829E010E816E828C0B0E366E6250
:106B53000EE82EFED7362EFCD700D0829C120011F1
:106B63000E816E829E0B0E366E620EE82EFED736B7
:106B73002EFCD700D0829E210E816E828C0B0E36A6
:106B83006E620EE82EFED7362EFCD700D0829C1202
:106B930000010E1126000E122213221422E80E11F8
:106BA3001810E1030E121813101410D8A4120000C9
:106BB3000E2D6E000E116E000E126E000E136E007F
:106BC3000E146E1200730EF66E660EF76E000EF85C
:106BD3006E0900F5CF47F00900F5CF48F00900F53D
:106BE300CF49F000EE01F0350EEE6AE806FDE10054
:106BF3000EF86E0001FEEF35F00E0EC16E9280921C
:106C030082928894929494949C949E928492869275
:106C13008A9480C30EC216F80EC016C08EC28000BE
:106C23000E936E8168829E829C82928294000E37BC
:106C33006E010E366E40EC33F00009D8B402D00179
:106C43000E01D0000E456E000E376E020E366E40FA
:106C5300EC33F0406E4050436E446A000E376E04CE
:106C63000E366E40EC33F0406E4050416E426ADAAD
:106C7300EC36F0D0EC3BF08FEC3DF0F9D73BEC3346
:106C8300F00D0E386EAF0E376EB60EE82EFED73708
:106C93002EFCD7382EFAD700D03AEC34F0010E157B
:106CA30026000E16221722182218BEF6D7185017E0
:106CB30010161004E1FA0E155CD8A0EED7000E15DD
:106CC3006E000E166E000E176E000E186E53EC3427
:106CD300F0010E1526000E16221722182218BEF6F2
:106CE300D718501710161004E1FA0E155CD8A0EE51
:106CF300D7000E156E000E166E000E176E000E18DE
:106D03006E000E2D6E1200828280A602D0010E014B
:106D1300D0000E326E010E1D26000E1E221F2220F1
:106D2300227CEC33F036C027F037C028F090EC33E8
:106D3300F0900E1D1811E1D00E1E180EE1030E1F68
:106D4300182010D8A409D0000E1D6E000E1E6E0070
:106D53000E1F6E000E206E1AD028BE15D0210E27EE
:106D63005C020E2858D8A00FD0294A2A2A2ABE0B23
:106D7300D0D10E295C070E2A58D8A005D0000E2AC0
:106D83006E000E296E03D03204D8B4BDD7829200B0
:106D93000E1D6E000E1E6E000E1F6E000E206E0086
:106DA3000E2A6E000E296E000E2F6E000E2E6E122E
:106DB3000080AA02D0010E01D0000E466E070E3DE0
:106DC3006E7D0EE82EFED73D2EFCD700F04650D840
:106DD300A422D04804D8A41FD0010E2F6E2F04D8AC
:106DE300A41AD02E04D8A417D0010E2D6E000E2F96
:106DF3006E000E2E6E000E266E000E256E080E3EE1
:106E03006E9D0E3D6E060EE82EFED73D2EFCD73E40
:106E13002EFAD729EC38F046C048F082A002D00100
:106E23000E01D0000E306E070E3D6E7D0EE82EFE75
:106E3300D73D2EFCD700F03050D8A422D04704D839
:106E4300A41FD0010E2E6E2E04D8A41AD02F04D85E
:106E5300A417D0010E2D6E000E2E6E000E2F6E00A5
:106E63000E266E000E256E080E3E6E9D0E3D6E06BE
:106E73000EE82EFED73D2EFCD73E2EFAD729EC384E
:106E8300F030C047F012000BD008EC34F018D021DA
:106E9300EC34F015D0000E266E000E256E10D025B2
:106EA300C039F026C03AF03A50000AD8A4F3D739D3
:106EB30050000AD8B4E9D7010AD8B4E9D7EBD7828E
:106EC300A002D0010E01D0000E306E3050D8A40DB8
:106ED300D04704D8A40AD0254A262A000E116E00F2
:106EE3000E126E000E136E000E146E30C047F0804B
:106EF300AA02D0010E01D0000E466E4650D8A42D32
:106F0300D04804D8B41AD029D0000E376E010E36FB
:106F13006E000E386E58EC33F040EC36F01ED000A5
:106F23000E376E010E366E010E386E58EC33F0F4E8
:106F3300D7000E266E000E256E10D025C039F02620
:106F4300C03AF03A50000AD8A4F3D73950000AD80F
:106F5300B4DBD7010AD8B4E3D7EBD746C048F0CAAD
:106F6300EC35F02D04D8A412009AD70BD008EC34DA
:106F7300F018D021EC34F015D0000E266E000E254B
:106F83006E10D025C039F026C03AF03A50000AD826
:106F9300A4F3D73950000AD8B4E9D7010AD8B4E921
:106FA300D7EBD782A002D0010E01D0000E306E3095
:106FB30050D8A40DD04704D8A40AD0254A262A00C5
:106FC3000E116E000E126E000E136E000E146E3054
:106FD300C047F080AA02D0010E01D0000E466E46D3
:106FE30050D8A42DD04804D8B41AD029D0000E37D5
:106FF3006E030E366E000E386E58EC33F040EC36EE
:10700300F01ED0000E376E030E366E010E386E582A
:10701300EC33F0F4D7000E266E000E256E10D0254B
:10702300C039F026C03AF03A50000AD8A4F3D73951
:1070330050000AD8B4DBD7010AD8B4E3D7EBD7465C
:10704300C048F0CAEC35F02D04D8A412009AD71129
:10705300D0A4EC33F024D0BDEC33F021D0D6EC3304
:10706300F01ED0EFEC33F01BD0000E266E000E2581
:107073006E16D025C03BF026C03CF03C50000AD829
:10708300A4F3D73B50000AD8B4E3D7010AD8B4E33A
:10709300D7030AD8B4E3D7010AD8B4E3D7E5D78234
:1070A300A002D0010E01D0000E306E3050D8A40DD6
:1070B300D04704D8A40AD0254A262A000E116E0010
:1070C3000E126E000E136E000E146E30C047F08069
:1070D300AA02D0010E01D0000E466E4650D8A47A03
:1070E300D04804D8A477D0000E116E000E126E00A3
:1070F3000E136E000E146E58D0000E266E000E2571
:107103006E080E3C6E9D0E3B6E060EE82EFED73BC0
:107113002EFCD73C2EFAD745EC37F05CD0000E2678
:107123006E000E256E080E3C6E9D0E3B6E060EE83D
:107133002EFED73B2EFCD73C2EFAD7F4EC38F04A80
:10714300D0000E266E000E256E080E3C6E9D0E3B83
:107153006E060EE82EFED73B2EFCD73C2EFAD7B791
:10716300EC37F038D0000E266E000E256E080E3C6C
:107173006E9D0E3B6E060EE82EFED73B2EFCD73CD3
:107183002EFAD762EC3AF026D0000E266E000E25BA
:107193006E080E3C6E9D0E3B6E060EE82EFED73B30
:1071A3002EFCD73C2EFAD716D025C03BF026C03C88
:1071B300F03C50000AD8A4E8D73B50000AD8B49C4E
:1071C300D7010AD8B4ABD7030AD8B4BAD7010AD8BF
:1071D300B4C9D7DAD746C048F0CAEC35F02D04D885
:1071E300A4120047D735D008EC34F06CD021EC342E
:1071F300F069D002EC35F066D01BEC35F063D03487
:10720300EC35F060D04DEC35F05DD066EC35F05ADE
:10721300D07FEC35F057D098EC35F054D0B1EC3545
:10722300F051D06CEC34F04ED085EC34F04BD09E62
:10723300EC34F048D0B7EC34F045D0D0EC34F04225
:10724300D0E9EC34F03FD0000E266E000E256E3AE6
:10725300D025C039F026C03AF03A50000AD8A4F33A
:10726300D73950000AD8B4BFD7010AD8B4BFD7035F
:107273000AD8B4BFD7010AD8B4BFD7070AD8B4BF56
:10728300D7010AD8B4BFD7030AD8B4BFD7010AD8E5
:10729300B4BFD70F0AD8B4BFD7010AD8B4BFD70336
:1072A3000AD8B4BFD7010AD8B4BFD7070AD8B4BF26
:1072B300D7010AD8B4BFD7030AD8B4BFD7010AD8B5
:1072C300B4BFD7C1D782A002D0010E01D0000E30C7
:1072D3006E3050D8A40DD04704D8A40AD0254A262E
:1072E3002A000E116E000E126E000E136E000E14A5
:1072F3006E30C047F080AA02D0010E01D0000E46C6
:107303006E4650D8A4D5D04804D8B498D0D1D00074
:107313000E376E020E366E000E386E58EC33F040A8
:10732300EC36F0C6D0000E376E020E366E010E3804
:107333006E58EC33F0F4D7000E376E020E366E0241
:107343000E386E58EC33F0EBD7000E376E020E3664
:107353006E030E386E58EC33F0E2D7000E376E0230
:107363000E366E040E386E58EC33F0D9D7000E3754
:107373006E020E366E050E386E58EC33F0D0D70021
:107383000E376E020E366E060E386E58EC33F0C7AB
:10739300D7000E376E020E366E070E386E58EC337A
:1073A300F0BED7000E376E020E366E080E386E58DA
:1073B300EC33F0B5D7000E376E020E366E090E3879
:1073C3006E58EC33F0ACD7000E376E020E366E0AF1
:1073D3000E386E58EC33F0A3D7000E376E020E361C
:1073E3006E0B0E386E58EC33F09AD7000E376E02E0
:1073F3000E366E0C0E386E58EC33F091D7000E3704
:107403006E020E366E0D0E386E58EC33F088D700D0
:107413000E376E020E366E0E0E386E58EC33F07F5A
:10742300D7000E376E020E366E0F0E386E58EC33E1
:10743300F076D7000E266E000E256E3AD025C039A1
:10744300F026C03AF03A50000AD8A4F3D7395000D6
:107453000AD8B45DD7010AD8B465D7030AD8B46B88
:10746300D7010AD8B471D7070AD8B477D7010AD895
:10747300B47DD7030AD8B483D7010AD8B489D70F08
:107483000AD8B48FD7010AD8B495D7030AD8B49BC6
:10749300D7010AD8B4A1D7070AD8B4A7D7010AD805
:1074A300B4ADD7030AD8B4B3D7010AD8B4B9D7C196
:1074B300D746C048F0CAEC35F02D04D8A41200C852
:1074C300D635D008EC34F06CD021EC34F069D0021E
:1074D300EC35F066D01BEC35F063D034EC35F0605E
:1074E300D04DEC35F05DD066EC35F05AD07FEC35FD
:1074F300F057D098EC35F054D0B1EC35F051D06C56
:10750300EC34F04ED085EC34F04BD09EEC34F048A4
:10751300D0B7EC34F045D0D0EC34F042D0E9EC34C1
:10752300F03FD0000E266E000E256E3AD025C039EE
:10753300F026C03AF03A50000AD8A4F3D7395000E5
:107543000AD8B4BFD7010AD8B4BFD7030AD8B4BF87
:10755300D7010AD8B4BFD7070AD8B4BFD7010AD80E
:10756300B4BFD7030AD8B4BFD7010AD8B4BFD70F63
:107573000AD8B4BFD7010AD8B4BFD7030AD8B4BF57
:10758300D7010AD8B4BFD7070AD8B4BFD7010AD8DE
:10759300B4BFD7030AD8B4BFD7010AD8B4BFD7C181
:1075A300D782A002D0010E01D0000E306E3050D829
:1075B300A40DD04704D8A40AD0254A262A000E11C8
:1075C3006E000E126E000E136E000E146E30C04766
:1075D300F080AA02D0010E01D0000E466E4650D8AC
:1075E300A4D5D04804D8B498D0D1D0000E376E04B7
:1075F3000E366E000E386E58EC33F040EC36F0C6A3
:10760300D0000E376E040E366E010E386E58EC3312
:10761300F0F4D7000E376E040E366E020E386E5835
:10762300EC33F0EBD7000E376E040E366E030E38D4
:107633006E58EC33F0E2D7000E376E040E366E044C
:107643000E386E58EC33F0D9D7000E376E040E3671
:107653006E050E386E58EC33F0D0D7000E376E043B
:107663000E366E060E386E58EC33F0C7D7000E3761
:107673006E040E366E070E386E58EC33F0BED7002C
:107683000E376E040E366E080E386E58EC33F0B5B6
:10769300D7000E376E040E366E090E386E58EC3373
:1076A300F0ACD7000E376E040E366E0A0E386E58E5
:1076B300EC33F0A3D7000E376E040E366E0B0E3884
:1076C3006E58EC33F09AD7000E376E040E366E0CFC
:1076D3000E386E58EC33F091D7000E376E040E3629
:1076E3006E0D0E386E58EC33F088D7000E376E04EB
:1076F3000E366E0E0E386E58EC33F07FD7000E3711
:107703006E040E366E0F0E386E58EC33F076D700DB
:107713000E266E000E256E3AD025C039F026C03AEB
:10772300F03A50000AD8A4F3D73950000AD8B45D10
:10773300D7010AD8B465D7030AD8B46BD7010AD8DE
:10774300B471D7070AD8B477D7010AD8B47DD70361
:107753000AD8B483D7010AD8B489D70F0AD8B48F0B
:10776300D7010AD8B495D7030AD8B49BD7010AD84E
:10777300B4A1D7070AD8B4A7D7010AD8B4ADD703A1
:107783000AD8B4B3D7010AD8B4B9D7C1D746C048C9
:10779300F0CAEC35F02D04D8A41200C8D680A2029A
:1077A300D0010E01D0000E346E020E3D6E450E3C2C
:1077B3006EAA0EE82EFED73C2EFCD73D2EFAD73408
:1077C30004D8A4A8D13550D8A4A5D1020E3D6E4546
:1077D3000E3C6EAA0EE82EFED73C2EFCD73D2EFAA9
:1077E300D780A402D0010E01D0000E316E3404D82C
:1077F300A491D13550D8A48ED13150D8A48BD100C7
:107803000E376E020E366E40EC33F03C6E3C504346
:107813006E446A43C036F044C037F0030E396EE855
:107823000E386E69EC33F036C043F037C044F0EDE8
:10783300D01A0E3D6E5E0E3C6E6E0EE82EFED73CE9
:107843002EFCD73D2EFAD782D0330E3D6EBB0E3CB5
:107853006EE00EE82EFED73C2EFCD73D2EFAD7580D
:10786300D14D0E3D6E190E3C6E500EE82EFED73CE8
:107873002EFCD73D2EFAD74CD1660E3D6E760E3CCC
:107883006EC10EE82EFED73C2EFCD73D2EFAD7A4B0
:10789300D07F0E3D6ED40E3C6E320EE82EFED73CEA
:1078A3002EFCD73D2EFAD734D1990E3D6E310E3CC6
:1078B3006EA20EE82EFED73C2EFCD73D2EFAD746FD
:1078C300D0B20E3D6E8F0E3C6E130EE82EFED73CEB
:1078D3002EFCD73D2EFAD780D0CB0E3D6EEC0E3C5E
:1078E3006E840EE82EFED73C2EFCD73D2EFAD72E03
:1078F300D0E50E3D6E490E3C6EF50EE82EFED73CEC
:107903002EFCD73D2EFAD768D0FE0E3D6EA70E3C57
:107913006E660EE82EFED73C2EFCD73D2EFAD7F826
:10792300D0FE0E3D6EA70E3C6E660EE82EFED73CD3
:107933002EFCD73D2EFAD71A0E3D6E5E0E3C6E6EB0
:107943000EE82EFED73C2EFCD73D2EFAD700D0E012
:10795300D0FE0E3D6EA70E3C6E660EE82EFED73CA3
:107963002EFCD73D2EFAD7330E3D6EBB0E3C6EE098
:107973000EE82EFED73C2EFCD73D2EFAD7C9D0FEFB
:107983000E3D6EA70E3C6E660EE82EFED73C2EFC17
:10799300D73D2EFAD74D0E3D6E190E3C6E500EE8B4
:1079A3002EFED73C2EFCD73D2EFAD7B2D0FE0E3D8D
:1079B3006EA70E3C6E660EE82EFED73C2EFCD73D1E
:1079C3002EFAD7660E3D6E760E3C6EC10EE82EFE85
:1079D300D73C2EFCD73D2EFAD700F09AD0FE0E3DB1
:1079E3006EA70E3C6E660EE82EFED73C2EFCD73DEE
:1079F3002EFAD77F0E3D6ED40E3C6E320EE82EFE6D
:107A0300D73C2EFCD73D2EFAD783D043C03CF0445D
:107A1300C03DF03D50000AD8B42ED0030AD8B42E8E
:107A2300D0040AD8B430D00C0AD8B432D0040AD85F
:107A3300B434D01C0AD8B436D0040AD8B438D00C25
:107A43000AD8B43AD0040AD8B43CD03C0AD8B43EDD
:107A5300D0040AD8B440D00D0AD8B442D0040AD80E
:107A6300B444D01C0AD8B446D0040AD8B448D00CC5
:107A73000AD8B44AD04DD03C50000A4AD03C50E812
:107A83000AD8B4D6D645D03C50D00AD8B4DDD640B7
:107A9300D03C50B80AD8B4E4D63BD03C50A00AD866
:107AA300B4EBD636D03C50880AD8B4F2D631D03CA9
:107AB30050700AD8B4F9D62CD03C50580AD8B40028
:107AC300D727D03C50400AD8B407D722D03C5028FF
:107AD3000AD8B40ED71DD03C50100AD8B415D71805
:107AE300D03C50F80AD8B41CD713D03C50E00AD885
:107AF300B42FD70ED03C50C80AD8B441D709D03CD4
:107B030050B00AD8B453D704D03C50980AD8B466BE
:107B1300D785EC36F034C035F0120080A802D001CE
:107B23000E01D0000E336E020E3D6E450E3C6EAA62
:107B33000EE82EFED73C2EFCD73D2EFAD73350D875
:107B4300A45AD24904D8A457D2020E3D6E450E3C26
:107B53006EAA0EE82EFED73C2EFCD73D2EFAD78018
:107B6300A402D0010E01D0000E316E3350D8A443CD
:107B7300D24904D8A440D23104D8A43DD2000E3750
:107B83006E040E366E40EC33F03C6E3C50416E4258
:107B93006A41C036F042C037F0030E396EE80E3842
:107BA3006E69EC33F036C041F037C042F0EDD01AC5
:107BB3000E3D6E5E0E3C6E6E0EE82EFED73C2EFC26
:107BC300D73D2EFAD782D0330E3D6EBB0E3C6EE00E
:107BD3000EE82EFED73C2EFCD73D2EFAD758D14DBA
:107BE3000E3D6E190E3C6E500EE82EFED73C2EFC59
:107BF300D73D2EFAD74CD1660E3D6E760E3C6EC144
:107C03000EE82EFED73C2EFCD73D2EFAD7A4D07F0C
:107C13000E3D6ED40E3C6E320EE82EFED73C2EFC8B
:107C2300D73D2EFAD734D1990E3D6E310E3C6EA25C
:107C33000EE82EFED73C2EFCD73D2EFAD746D0B207
:107C43000E3D6E8F0E3C6E130EE82EFED73C2EFCBF
:107C5300D73D2EFAD780D0CB0E3D6EEC0E3C6E8412
:107C63000EE82EFED73C2EFCD73D2EFAD72ED0E5BC
:107C73000E3D6E490E3C6EF50EE82EFED73C2EFCF3
:107C8300D73D2EFAD768D0FE0E3D6EA70E3C6E662A
:107C93000EE82EFED73C2EFCD73D2EFAD7F8D0FEA9
:107CA3000E3D6EA70E3C6E660EE82EFED73C2EFCF4
:107CB300D73D2EFAD71A0E3D6E5E0E3C6E6E0EE861
:107CC3002EFED73C2EFCD73D2EFAD700D0E0D0FEB7
:107CD3000E3D6EA70E3C6E660EE82EFED73C2EFCC4
:107CE300D73D2EFAD7330E3D6EBB0E3C6EE00EE849
:107CF3002EFED73C2EFCD73D2EFAD7C9D0FE0E3D23
:107D03006EA70E3C6E660EE82EFED73C2EFCD73DCA
:107D13002EFAD74D0E3D6E190E3C6E500EE82EFE18
:107D2300D73C2EFCD73D2EFAD7B2D0FE0E3D6EA720
:107D33000E3C6E660EE82EFED73C2EFCD73D2EFA87
:107D4300D7660E3D6E760E3C6EC10EE82EFED73C16
:107D53002EFCD73D2EFAD700F09AD0FE0E3D6EA72B
:107D63000E3C6E660EE82EFED73C2EFCD73D2EFA57
:107D7300D77F0E3D6ED40E3C6E320EE82EFED73CFE
:107D83002EFCD73D2EFAD783D041C03CF042C03DF4
:107D9300F03D50000AD8B42ED0030AD8B42ED00434
:107DA3000AD8B430D00C0AD8B432D0040AD8B434C8
:107DB300D01C0AD8B436D0040AD8B438D00C0AD8A8
:107DC300B43AD0040AD8B43CD03C0AD8B43ED00468
:107DD3000AD8B440D00D0AD8B442D0040AD8B44467
:107DE300D01C0AD8B446D0040AD8B448D00C0AD858
:107DF300B44AD04DD03C50000A4AD03C50E80AD88F
:107E0300B4D6D645D03C50D00AD8B4DDD640D03C09
:107E130050B80AD8B4E4D63BD03C50A00AD8B4EB4F
:107E2300D636D03C50880AD8B4F2D631D03C507004
:107E33000AD8B4F9D62CD03C50580AD8B400D72766
:107E4300D03C50400AD8B407D722D03C50280AD897
:107E5300B40ED71DD03C50100AD8B415D718D03C57
:107E630050F80AD8B41CD713D03C50E00AD8B42F2A
:107E7300D70ED03C50C80AD8B441D709D03C50B033
:107E83000AD8B453D704D03C50980AD8B466D70163
:107E93000E2B6E828480A402D0010E01D0000E311D
:107EA3006E010E1D26000E1E221F22202290EC338F
:107EB300F03150D8A429D0000E2B6E000E376E017E
:107EC3000E366E40EC33F03C6E3C503E6E3F6A3EE5
:107ED300043F10D8A419D0330E3D6EBB0E3C6EE0A8
:107EE3000EE82EFED73C2EFCD73D2EFAD782948285
:107EF30082030E3D6E8A0E3C6E560EE82EFED73C74
:107F03002EFCD73D2EFAD78292900E1D1811E1D088
:107F13000E1E180EE1030E1F182010D8A409D0005E
:107F23000E1D6E000E1E6E000E1F6E000E206E1ACA
:107F3300D028BE15D0210E275C020E2858D8A00FDA
:107F4300D0294A2A2A2ABE0BD0D10E295C070E2A31
:107F530058D8A005D0000E2A6E000E296E03D02B30
:107F630004D8B497D78294000E1D6E000E1E6E00C7
:107F73000E1F6E000E206E000E2A6E000E296E80FC
:107F8300A202D0010E01D0000E346E010E1926009C
:107F93000E1A221B221C2280A202D0010E01D00045
:107FA3000E346E400E19181CE1420E1A1819E10F17
:107FB3000E1B181C10D8A414D080A402D0010E01EB
:107FC300D0000E316E3150D8A40ED085EC36F000BF
:107FD3000E196E000E1A6E000E1B6E000E1C6E0341
:107FE300D03404D8B4D2D7000E196E000E1A6E0026
:0D7FF3000E1B6E000E1C6E33C049F0120014
:020000040020DA
:08000000FFFFFFFFFFFFFFFF00
:020000040030CA
:0E000000000C191EFF8381FF0FC00FE00F40A0
:00000001FF
