:020000040000FA
:040000002CEF3FF0B2
:107E3F00010F0EC16E9282E70E936E819681983E6E
:107E4F00EC3FF09FEC3FF0FBD73F0EF66E7E0EF748
:107E5F006E000EF86E0900F5CF0CF000EE01F00881
:107E6F000EEE6AE806FDE1000120EF3FF080A2026E
:107E7F00D0010E01D0000E0B6E020E0A6E450E09D8
:107E8F006EAA0EE82EFED7092EFCD70A2EFAD70BB4
:107E9F0004D8A44AD00850D8A447D0020E0A6E4581
:107EAF000E096EAA0EE82EFED7092EFCD70A2EFA5F
:107EBF00D781AC02D0010E01D0000E056E0B04D895
:107ECF00A433D00850D8A430D00550D8A42DD081D9
:107EDF008681AE02D0010E01D0000E066E010E019A
:107EEF0026000E022203220422500E011811E1F87F
:107EFF000E02180EE10C0E03180410D8A409D000BE
:107F0F000E016E000E026E000E036E000E046E0365
:107F1F00D00604D8B4DCD78196000E016E000E0295
:107F2F006E000E036E000E046E0BC008F01200817F
:107F3F00A402D0010E01D0000E076E020E0A6E458C
:107F4F000E096EAA0EE82EFED7092EFCD70A2EFABE
:107F5F00D70750D8A44AD00C04D8A447D0020E0A91
:107F6F006E450E096EAA0EE82EFED7092EFCD70A13
:107F7F002EFAD781AC02D0010E01D0000E056E078C
:107F8F0050D8A433D00C04D8A430D00504D8A42DD5
:107F9F00D0818881AC02D0010E01D0000E056E0198
:107FAF000E0126000E022203220422500E01181188
:107FBF00E1F80E02180EE10C0E03180410D8A409F4
:107FCF00D0000E016E000E026E000E036E000E0446
:107FDF006E03D00504D8B4DCD78198000E016E0073
:107FEF000E026E000E036E000E046E07C00CF01230
:017FFF000081
:020000040020DA
:08000000FFFFFFFFFFFFFFFF00
:020000040030CA
:0E000000000C191EFF8381FF0FC00FE00F40A0
:00000001FF
